{
  "contractName": "Color",
  "abi": [
    {
      "inputs": [],
      "stateMutability": "nonpayable",
      "type": "constructor"
    },
    {
      "anonymous": false,
      "inputs": [
        {
          "indexed": true,
          "internalType": "address",
          "name": "owner",
          "type": "address"
        },
        {
          "indexed": true,
          "internalType": "address",
          "name": "approved",
          "type": "address"
        },
        {
          "indexed": true,
          "internalType": "uint256",
          "name": "tokenId",
          "type": "uint256"
        }
      ],
      "name": "Approval",
      "type": "event"
    },
    {
      "anonymous": false,
      "inputs": [
        {
          "indexed": true,
          "internalType": "address",
          "name": "owner",
          "type": "address"
        },
        {
          "indexed": true,
          "internalType": "address",
          "name": "operator",
          "type": "address"
        },
        {
          "indexed": false,
          "internalType": "bool",
          "name": "approved",
          "type": "bool"
        }
      ],
      "name": "ApprovalForAll",
      "type": "event"
    },
    {
      "anonymous": false,
      "inputs": [
        {
          "indexed": true,
          "internalType": "address",
          "name": "from",
          "type": "address"
        },
        {
          "indexed": true,
          "internalType": "address",
          "name": "to",
          "type": "address"
        },
        {
          "indexed": true,
          "internalType": "uint256",
          "name": "tokenId",
          "type": "uint256"
        }
      ],
      "name": "Transfer",
      "type": "event"
    },
    {
      "inputs": [
        {
          "internalType": "uint256",
          "name": "",
          "type": "uint256"
        }
      ],
      "name": "_allTokens",
      "outputs": [
        {
          "internalType": "uint256",
          "name": "",
          "type": "uint256"
        }
      ],
      "stateMutability": "view",
      "type": "function"
    },
    {
      "inputs": [
        {
          "internalType": "address",
          "name": "to",
          "type": "address"
        },
        {
          "internalType": "uint256",
          "name": "tokenId",
          "type": "uint256"
        }
      ],
      "name": "approve",
      "outputs": [],
      "stateMutability": "nonpayable",
      "type": "function"
    },
    {
      "inputs": [
        {
          "internalType": "address",
          "name": "owner",
          "type": "address"
        }
      ],
      "name": "balanceOf",
      "outputs": [
        {
          "internalType": "uint256",
          "name": "",
          "type": "uint256"
        }
      ],
      "stateMutability": "view",
      "type": "function"
    },
    {
      "inputs": [
        {
          "internalType": "uint256",
          "name": "",
          "type": "uint256"
        }
      ],
      "name": "colors",
      "outputs": [
        {
          "internalType": "string",
          "name": "",
          "type": "string"
        }
      ],
      "stateMutability": "view",
      "type": "function"
    },
    {
      "inputs": [
        {
          "internalType": "uint256",
          "name": "tokenId",
          "type": "uint256"
        }
      ],
      "name": "getApproved",
      "outputs": [
        {
          "internalType": "address",
          "name": "",
          "type": "address"
        }
      ],
      "stateMutability": "view",
      "type": "function"
    },
    {
      "inputs": [
        {
          "internalType": "address",
          "name": "owner",
          "type": "address"
        },
        {
          "internalType": "address",
          "name": "operator",
          "type": "address"
        }
      ],
      "name": "isApprovedForAll",
      "outputs": [
        {
          "internalType": "bool",
          "name": "",
          "type": "bool"
        }
      ],
      "stateMutability": "view",
      "type": "function"
    },
    {
      "inputs": [],
      "name": "name",
      "outputs": [
        {
          "internalType": "string",
          "name": "",
          "type": "string"
        }
      ],
      "stateMutability": "view",
      "type": "function"
    },
    {
      "inputs": [
        {
          "internalType": "uint256",
          "name": "tokenId",
          "type": "uint256"
        }
      ],
      "name": "ownerOf",
      "outputs": [
        {
          "internalType": "address",
          "name": "",
          "type": "address"
        }
      ],
      "stateMutability": "view",
      "type": "function"
    },
    {
      "inputs": [
        {
          "internalType": "address",
          "name": "from",
          "type": "address"
        },
        {
          "internalType": "address",
          "name": "to",
          "type": "address"
        },
        {
          "internalType": "uint256",
          "name": "tokenId",
          "type": "uint256"
        }
      ],
      "name": "safeTransferFrom",
      "outputs": [],
      "stateMutability": "nonpayable",
      "type": "function"
    },
    {
      "inputs": [
        {
          "internalType": "address",
          "name": "from",
          "type": "address"
        },
        {
          "internalType": "address",
          "name": "to",
          "type": "address"
        },
        {
          "internalType": "uint256",
          "name": "tokenId",
          "type": "uint256"
        },
        {
          "internalType": "bytes",
          "name": "_data",
          "type": "bytes"
        }
      ],
      "name": "safeTransferFrom",
      "outputs": [],
      "stateMutability": "nonpayable",
      "type": "function"
    },
    {
      "inputs": [
        {
          "internalType": "address",
          "name": "operator",
          "type": "address"
        },
        {
          "internalType": "bool",
          "name": "approved",
          "type": "bool"
        }
      ],
      "name": "setApprovalForAll",
      "outputs": [],
      "stateMutability": "nonpayable",
      "type": "function"
    },
    {
      "inputs": [],
      "name": "symbol",
      "outputs": [
        {
          "internalType": "string",
          "name": "",
          "type": "string"
        }
      ],
      "stateMutability": "view",
      "type": "function"
    },
    {
      "inputs": [
        {
          "internalType": "uint256",
          "name": "index",
          "type": "uint256"
        }
      ],
      "name": "tokenByIndex",
      "outputs": [
        {
          "internalType": "uint256",
          "name": "",
          "type": "uint256"
        }
      ],
      "stateMutability": "view",
      "type": "function"
    },
    {
      "inputs": [
        {
          "internalType": "address",
          "name": "owner",
          "type": "address"
        },
        {
          "internalType": "uint256",
          "name": "index",
          "type": "uint256"
        }
      ],
      "name": "tokenOfOwnerByIndex",
      "outputs": [
        {
          "internalType": "uint256",
          "name": "",
          "type": "uint256"
        }
      ],
      "stateMutability": "view",
      "type": "function"
    },
    {
      "inputs": [
        {
          "internalType": "uint256",
          "name": "tokenId",
          "type": "uint256"
        }
      ],
      "name": "tokenURI",
      "outputs": [
        {
          "internalType": "string",
          "name": "",
          "type": "string"
        }
      ],
      "stateMutability": "view",
      "type": "function"
    },
    {
      "inputs": [],
      "name": "totalSupply",
      "outputs": [
        {
          "internalType": "uint256",
          "name": "",
          "type": "uint256"
        }
      ],
      "stateMutability": "view",
      "type": "function"
    },
    {
      "inputs": [
        {
          "internalType": "address",
          "name": "from",
          "type": "address"
        },
        {
          "internalType": "address",
          "name": "to",
          "type": "address"
        },
        {
          "internalType": "uint256",
          "name": "tokenId",
          "type": "uint256"
        }
      ],
      "name": "transferFrom",
      "outputs": [],
      "stateMutability": "nonpayable",
      "type": "function"
    },
    {
      "inputs": [
        {
          "internalType": "bytes4",
          "name": "interfaceId",
          "type": "bytes4"
        }
      ],
      "name": "supportsInterface",
      "outputs": [
        {
          "internalType": "bool",
          "name": "",
          "type": "bool"
        }
      ],
      "stateMutability": "view",
      "type": "function"
    },
    {
      "inputs": [
        {
          "internalType": "string",
          "name": "_color",
          "type": "string"
        }
      ],
      "name": "mint",
      "outputs": [],
      "stateMutability": "nonpayable",
      "type": "function"
    }
  ],
  "bytecode": "0x60806040523480156200001157600080fd5b506040518060400160405280600581526020017f436f6c6f720000000000000000000000000000000000000000000000000000008152506040518060400160405280600681526020017f434f4c4f52530000000000000000000000000000000000000000000000000000815250816000908051906020019062000096929190620000b8565b508060019080519060200190620000af929190620000b8565b505050620001cd565b828054620000c69062000197565b90600052602060002090601f016020900481019282620000ea576000855562000136565b82601f106200010557805160ff191683800117855562000136565b8280016001018555821562000136579182015b828111156200013557825182559160200191906001019062000118565b5b50905062000145919062000149565b5090565b5b80821115620001645760008160009055506001016200014a565b5090565b7f4e487b7100000000000000000000000000000000000000000000000000000000600052602260045260246000fd5b60006002820490506001821680620001b057607f821691505b60208210811415620001c757620001c662000168565b5b50919050565b6131f580620001dd6000396000f3fe608060405234801561001057600080fd5b50600436106101215760003560e01c80636352211e116100ad578063b88d4fde11610071578063b88d4fde14610340578063bd11f69d1461035c578063c87b56dd1461038c578063d85d3d27146103bc578063e985e9c5146103d857610121565b80636352211e1461027657806370a08231146102a657806395d89b41146102d6578063a22cb465146102f4578063aa5965ae1461031057610121565b806318160ddd116100f457806318160ddd146101c057806323b872dd146101de5780632f745c59146101fa57806342842e0e1461022a5780634f6ccce71461024657610121565b806301ffc9a71461012657806306fdde0314610156578063081812fc14610174578063095ea7b3146101a4575b600080fd5b610140600480360381019061013b9190611f24565b610408565b60405161014d9190611f6c565b60405180910390f35b61015e61041a565b60405161016b9190612020565b60405180910390f35b61018e60048036038101906101899190612078565b6104ac565b60405161019b91906120e6565b60405180910390f35b6101be60048036038101906101b9919061212d565b610531565b005b6101c8610649565b6040516101d5919061217c565b60405180910390f35b6101f860048036038101906101f39190612197565b610656565b005b610214600480360381019061020f919061212d565b6106b6565b604051610221919061217c565b60405180910390f35b610244600480360381019061023f9190612197565b61075b565b005b610260600480360381019061025b9190612078565b61077b565b60405161026d919061217c565b60405180910390f35b610290600480360381019061028b9190612078565b6107ec565b60405161029d91906120e6565b60405180910390f35b6102c060048036038101906102bb91906121ea565b61089e565b6040516102cd919061217c565b60405180910390f35b6102de610956565b6040516102eb9190612020565b60405180910390f35b61030e60048036038101906103099190612243565b6109e8565b005b61032a60048036038101906103259190612078565b610b69565b604051610337919061217c565b60405180910390f35b61035a600480360381019061035591906123b8565b610b8d565b005b61037660048036038101906103719190612078565b610bef565b6040516103839190612020565b60405180910390f35b6103a660048036038101906103a19190612078565b610c9b565b6040516103b39190612020565b60405180910390f35b6103d660048036038101906103d191906124dc565b610d42565b005b6103f260048036038101906103ed9190612525565b610dd9565b6040516103ff9190611f6c565b60405180910390f35b600061041382610e6d565b9050919050565b60606000805461042990612594565b80601f016020809104026020016040519081016040528092919081815260200182805461045590612594565b80156104a25780601f10610477576101008083540402835291602001916104a2565b820191906000526020600020905b81548152906001019060200180831161048557829003601f168201915b5050505050905090565b60006104b782610ee7565b6104f6576040517f08c379a00000000000000000000000000000000000000000000000000000000081526004016104ed90612638565b60405180910390fd5b6004600083815260200190815260200160002060009054906101000a900473ffffffffffffffffffffffffffffffffffffffff169050919050565b600061053c826107ec565b90508073ffffffffffffffffffffffffffffffffffffffff168373ffffffffffffffffffffffffffffffffffffffff1614156105ad576040517f08c379a00000000000000000000000000000000000000000000000000000000081526004016105a4906126ca565b60405180910390fd5b8073ffffffffffffffffffffffffffffffffffffffff166105cc610f53565b73ffffffffffffffffffffffffffffffffffffffff1614806105fb57506105fa816105f5610f53565b610dd9565b5b61063a576040517f08c379a00000000000000000000000000000000000000000000000000000000081526004016106319061275c565b60405180910390fd5b6106448383610f5b565b505050565b6000600880549050905090565b610667610661610f53565b82611014565b6106a6576040517f08c379a000000000000000000000000000000000000000000000000000000000815260040161069d906127ee565b60405180910390fd5b6106b18383836110f2565b505050565b60006106c18361089e565b8210610702576040517f08c379a00000000000000000000000000000000000000000000000000000000081526004016106f990612880565b60405180910390fd5b600660008473ffffffffffffffffffffffffffffffffffffffff1673ffffffffffffffffffffffffffffffffffffffff168152602001908152602001600020600083815260200190815260200160002054905092915050565b61077683838360405180602001604052806000815250610b8d565b505050565b6000610785610649565b82106107c6576040517f08c379a00000000000000000000000000000000000000000000000000000000081526004016107bd90612912565b60405180910390fd5b600882815481106107da576107d9612932565b5b90600052602060002001549050919050565b6000806002600084815260200190815260200160002060009054906101000a900473ffffffffffffffffffffffffffffffffffffffff169050600073ffffffffffffffffffffffffffffffffffffffff168173ffffffffffffffffffffffffffffffffffffffff161415610895576040517f08c379a000000000000000000000000000000000000000000000000000000000815260040161088c906129d3565b60405180910390fd5b80915050919050565b60008073ffffffffffffffffffffffffffffffffffffffff168273ffffffffffffffffffffffffffffffffffffffff16141561090f576040517f08c379a000000000000000000000000000000000000000000000000000000000815260040161090690612a65565b60405180910390fd5b600360008373ffffffffffffffffffffffffffffffffffffffff1673ffffffffffffffffffffffffffffffffffffffff168152602001908152602001600020549050919050565b60606001805461096590612594565b80601f016020809104026020016040519081016040528092919081815260200182805461099190612594565b80156109de5780601f106109b3576101008083540402835291602001916109de565b820191906000526020600020905b8154815290600101906020018083116109c157829003601f168201915b5050505050905090565b6109f0610f53565b73ffffffffffffffffffffffffffffffffffffffff168273ffffffffffffffffffffffffffffffffffffffff161415610a5e576040517f08c379a0000000000000000000000000000000000000000000000000000000008152600401610a5590612ad1565b60405180910390fd5b8060056000610a6b610f53565b73ffffffffffffffffffffffffffffffffffffffff1673ffffffffffffffffffffffffffffffffffffffff16815260200190815260200160002060008473ffffffffffffffffffffffffffffffffffffffff1673ffffffffffffffffffffffffffffffffffffffff16815260200190815260200160002060006101000a81548160ff0219169083151502179055508173ffffffffffffffffffffffffffffffffffffffff16610b18610f53565b73ffffffffffffffffffffffffffffffffffffffff167f17307eab39ab6107e8899845ad3d59bd9653f200f220920489ca2b5937696c3183604051610b5d9190611f6c565b60405180910390a35050565b60088181548110610b7957600080fd5b906000526020600020016000915090505481565b610b9e610b98610f53565b83611014565b610bdd576040517f08c379a0000000000000000000000000000000000000000000000000000000008152600401610bd4906127ee565b60405180910390fd5b610be98484848461134e565b50505050565b600a8181548110610bff57600080fd5b906000526020600020016000915090508054610c1a90612594565b80601f0160208091040260200160405190810160405280929190818152602001828054610c4690612594565b8015610c935780601f10610c6857610100808354040283529160200191610c93565b820191906000526020600020905b815481529060010190602001808311610c7657829003601f168201915b505050505081565b6060610ca682610ee7565b610ce5576040517f08c379a0000000000000000000000000000000000000000000000000000000008152600401610cdc90612b63565b60405180910390fd5b6000610cef6113aa565b90506000815111610d0f5760405180602001604052806000815250610d3a565b80610d19846113c1565b604051602001610d2a929190612bbf565b6040516020818303038152906040525b915050919050565b600a81908060018154018082558091505060019003906000526020600020016000909190919091509080519060200190610d7d929190611e15565b5060006001600a80549050610d929190612c12565b9050610d9e3382611522565b6001600b83604051610db09190612c46565b908152602001604051809103902060006101000a81548160ff0219169083151502179055505050565b6000600560008473ffffffffffffffffffffffffffffffffffffffff1673ffffffffffffffffffffffffffffffffffffffff16815260200190815260200160002060008373ffffffffffffffffffffffffffffffffffffffff1673ffffffffffffffffffffffffffffffffffffffff16815260200190815260200160002060009054906101000a900460ff16905092915050565b60007f780e9d63000000000000000000000000000000000000000000000000000000007bffffffffffffffffffffffffffffffffffffffffffffffffffffffff1916827bffffffffffffffffffffffffffffffffffffffffffffffffffffffff19161480610ee05750610edf826116f0565b5b9050919050565b60008073ffffffffffffffffffffffffffffffffffffffff166002600084815260200190815260200160002060009054906101000a900473ffffffffffffffffffffffffffffffffffffffff1673ffffffffffffffffffffffffffffffffffffffff1614159050919050565b600033905090565b816004600083815260200190815260200160002060006101000a81548173ffffffffffffffffffffffffffffffffffffffff021916908373ffffffffffffffffffffffffffffffffffffffff160217905550808273ffffffffffffffffffffffffffffffffffffffff16610fce836107ec565b73ffffffffffffffffffffffffffffffffffffffff167f8c5be1e5ebec7d5bd14f71427d1e84f3dd0314c0f7b2291e5b200ac8c7c3b92560405160405180910390a45050565b600061101f82610ee7565b61105e576040517f08c379a000000000000000000000000000000000000000000000000000000000815260040161105590612ccf565b60405180910390fd5b6000611069836107ec565b90508073ffffffffffffffffffffffffffffffffffffffff168473ffffffffffffffffffffffffffffffffffffffff1614806110d857508373ffffffffffffffffffffffffffffffffffffffff166110c0846104ac565b73ffffffffffffffffffffffffffffffffffffffff16145b806110e957506110e88185610dd9565b5b91505092915050565b8273ffffffffffffffffffffffffffffffffffffffff16611112826107ec565b73ffffffffffffffffffffffffffffffffffffffff1614611168576040517f08c379a000000000000000000000000000000000000000000000000000000000815260040161115f90612d61565b60405180910390fd5b600073ffffffffffffffffffffffffffffffffffffffff168273ffffffffffffffffffffffffffffffffffffffff1614156111d8576040517f08c379a00000000000000000000000000000000000000000000000000000000081526004016111cf90612df3565b60405180910390fd5b6111e38383836117d2565b6111ee600082610f5b565b6001600360008573ffffffffffffffffffffffffffffffffffffffff1673ffffffffffffffffffffffffffffffffffffffff168152602001908152602001600020600082825461123e9190612c12565b925050819055506001600360008473ffffffffffffffffffffffffffffffffffffffff1673ffffffffffffffffffffffffffffffffffffffff16815260200190815260200160002060008282546112959190612e13565b92505081905550816002600083815260200190815260200160002060006101000a81548173ffffffffffffffffffffffffffffffffffffffff021916908373ffffffffffffffffffffffffffffffffffffffff160217905550808273ffffffffffffffffffffffffffffffffffffffff168473ffffffffffffffffffffffffffffffffffffffff167fddf252ad1be2c89b69c2b068fc378daa952ba7f163c4a11628f55a4df523b3ef60405160405180910390a4505050565b6113598484846110f2565b611365848484846117e2565b6113a4576040517f08c379a000000000000000000000000000000000000000000000000000000000815260040161139b90612edb565b60405180910390fd5b50505050565b606060405180602001604052806000815250905090565b60606000821415611409576040518060400160405280600181526020017f3000000000000000000000000000000000000000000000000000000000000000815250905061151d565b600082905060005b6000821461143b57808061142490612efb565b915050600a826114349190612f73565b9150611411565b60008167ffffffffffffffff8111156114575761145661228d565b5b6040519080825280601f01601f1916602001820160405280156114895781602001600182028036833780820191505090505b5090505b60008514611516576001826114a29190612c12565b9150600a856114b19190612fa4565b60306114bd9190612e13565b60f81b8183815181106114d3576114d2612932565b5b60200101907effffffffffffffffffffffffffffffffffffffffffffffffffffffffffffff1916908160001a905350600a8561150f9190612f73565b945061148d565b8093505050505b919050565b600073ffffffffffffffffffffffffffffffffffffffff168273ffffffffffffffffffffffffffffffffffffffff161415611592576040517f08c379a000000000000000000000000000000000000000000000000000000000815260040161158990613021565b60405180910390fd5b61159b81610ee7565b156115db576040517f08c379a00000000000000000000000000000000000000000000000000000000081526004016115d29061308d565b60405180910390fd5b6115e7600083836117d2565b6001600360008473ffffffffffffffffffffffffffffffffffffffff1673ffffffffffffffffffffffffffffffffffffffff16815260200190815260200160002060008282546116379190612e13565b92505081905550816002600083815260200190815260200160002060006101000a81548173ffffffffffffffffffffffffffffffffffffffff021916908373ffffffffffffffffffffffffffffffffffffffff160217905550808273ffffffffffffffffffffffffffffffffffffffff16600073ffffffffffffffffffffffffffffffffffffffff167fddf252ad1be2c89b69c2b068fc378daa952ba7f163c4a11628f55a4df523b3ef60405160405180910390a45050565b60007f80ac58cd000000000000000000000000000000000000000000000000000000007bffffffffffffffffffffffffffffffffffffffffffffffffffffffff1916827bffffffffffffffffffffffffffffffffffffffffffffffffffffffff191614806117bb57507f5b5e139f000000000000000000000000000000000000000000000000000000007bffffffffffffffffffffffffffffffffffffffffffffffffffffffff1916827bffffffffffffffffffffffffffffffffffffffffffffffffffffffff1916145b806117cb57506117ca82611979565b5b9050919050565b6117dd8383836119e3565b505050565b60006118038473ffffffffffffffffffffffffffffffffffffffff16611af7565b1561196c578373ffffffffffffffffffffffffffffffffffffffff1663150b7a0261182c610f53565b8786866040518563ffffffff1660e01b815260040161184e9493929190613102565b602060405180830381600087803b15801561186857600080fd5b505af192505050801561189957506040513d601f19601f820116820180604052508101906118969190613163565b60015b61191c573d80600081146118c9576040519150601f19603f3d011682016040523d82523d6000602084013e6118ce565b606091505b50600081511415611914576040517f08c379a000000000000000000000000000000000000000000000000000000000815260040161190b90612edb565b60405180910390fd5b805181602001fd5b63150b7a0260e01b7bffffffffffffffffffffffffffffffffffffffffffffffffffffffff1916817bffffffffffffffffffffffffffffffffffffffffffffffffffffffff191614915050611971565b600190505b949350505050565b60007f01ffc9a7000000000000000000000000000000000000000000000000000000007bffffffffffffffffffffffffffffffffffffffffffffffffffffffff1916827bffffffffffffffffffffffffffffffffffffffffffffffffffffffff1916149050919050565b6119ee838383611b0a565b600073ffffffffffffffffffffffffffffffffffffffff168373ffffffffffffffffffffffffffffffffffffffff161415611a3157611a2c81611b0f565b611a70565b8173ffffffffffffffffffffffffffffffffffffffff168373ffffffffffffffffffffffffffffffffffffffff1614611a6f57611a6e8382611b58565b5b5b600073ffffffffffffffffffffffffffffffffffffffff168273ffffffffffffffffffffffffffffffffffffffff161415611ab357611aae81611cc5565b611af2565b8273ffffffffffffffffffffffffffffffffffffffff168273ffffffffffffffffffffffffffffffffffffffff1614611af157611af08282611d96565b5b5b505050565b600080823b905060008111915050919050565b505050565b6008805490506009600083815260200190815260200160002081905550600881908060018154018082558091505060019003906000526020600020016000909190919091505550565b60006001611b658461089e565b611b6f9190612c12565b9050600060076000848152602001908152602001600020549050818114611c54576000600660008673ffffffffffffffffffffffffffffffffffffffff1673ffffffffffffffffffffffffffffffffffffffff168152602001908152602001600020600084815260200190815260200160002054905080600660008773ffffffffffffffffffffffffffffffffffffffff1673ffffffffffffffffffffffffffffffffffffffff168152602001908152602001600020600084815260200190815260200160002081905550816007600083815260200190815260200160002081905550505b6007600084815260200190815260200160002060009055600660008573ffffffffffffffffffffffffffffffffffffffff1673ffffffffffffffffffffffffffffffffffffffff16815260200190815260200160002060008381526020019081526020016000206000905550505050565b60006001600880549050611cd99190612c12565b9050600060096000848152602001908152602001600020549050600060088381548110611d0957611d08612932565b5b906000526020600020015490508060088381548110611d2b57611d2a612932565b5b906000526020600020018190555081600960008381526020019081526020016000208190555060096000858152602001908152602001600020600090556008805480611d7a57611d79613190565b5b6001900381819060005260206000200160009055905550505050565b6000611da18361089e565b905081600660008573ffffffffffffffffffffffffffffffffffffffff1673ffffffffffffffffffffffffffffffffffffffff168152602001908152602001600020600083815260200190815260200160002081905550806007600084815260200190815260200160002081905550505050565b828054611e2190612594565b90600052602060002090601f016020900481019282611e435760008555611e8a565b82601f10611e5c57805160ff1916838001178555611e8a565b82800160010185558215611e8a579182015b82811115611e89578251825591602001919060010190611e6e565b5b509050611e979190611e9b565b5090565b5b80821115611eb4576000816000905550600101611e9c565b5090565b6000604051905090565b600080fd5b600080fd5b60007fffffffff0000000000000000000000000000000000000000000000000000000082169050919050565b611f0181611ecc565b8114611f0c57600080fd5b50565b600081359050611f1e81611ef8565b92915050565b600060208284031215611f3a57611f39611ec2565b5b6000611f4884828501611f0f565b91505092915050565b60008115159050919050565b611f6681611f51565b82525050565b6000602082019050611f816000830184611f5d565b92915050565b600081519050919050565b600082825260208201905092915050565b60005b83811015611fc1578082015181840152602081019050611fa6565b83811115611fd0576000848401525b50505050565b6000601f19601f8301169050919050565b6000611ff282611f87565b611ffc8185611f92565b935061200c818560208601611fa3565b61201581611fd6565b840191505092915050565b6000602082019050818103600083015261203a8184611fe7565b905092915050565b6000819050919050565b61205581612042565b811461206057600080fd5b50565b6000813590506120728161204c565b92915050565b60006020828403121561208e5761208d611ec2565b5b600061209c84828501612063565b91505092915050565b600073ffffffffffffffffffffffffffffffffffffffff82169050919050565b60006120d0826120a5565b9050919050565b6120e0816120c5565b82525050565b60006020820190506120fb60008301846120d7565b92915050565b61210a816120c5565b811461211557600080fd5b50565b60008135905061212781612101565b92915050565b6000806040838503121561214457612143611ec2565b5b600061215285828601612118565b925050602061216385828601612063565b9150509250929050565b61217681612042565b82525050565b6000602082019050612191600083018461216d565b92915050565b6000806000606084860312156121b0576121af611ec2565b5b60006121be86828701612118565b93505060206121cf86828701612118565b92505060406121e086828701612063565b9150509250925092565b600060208284031215612200576121ff611ec2565b5b600061220e84828501612118565b91505092915050565b61222081611f51565b811461222b57600080fd5b50565b60008135905061223d81612217565b92915050565b6000806040838503121561225a57612259611ec2565b5b600061226885828601612118565b92505060206122798582860161222e565b9150509250929050565b600080fd5b600080fd5b7f4e487b7100000000000000000000000000000000000000000000000000000000600052604160045260246000fd5b6122c582611fd6565b810181811067ffffffffffffffff821117156122e4576122e361228d565b5b80604052505050565b60006122f7611eb8565b905061230382826122bc565b919050565b600067ffffffffffffffff8211156123235761232261228d565b5b61232c82611fd6565b9050602081019050919050565b82818337600083830152505050565b600061235b61235684612308565b6122ed565b90508281526020810184848401111561237757612376612288565b5b612382848285612339565b509392505050565b600082601f83011261239f5761239e612283565b5b81356123af848260208601612348565b91505092915050565b600080600080608085870312156123d2576123d1611ec2565b5b60006123e087828801612118565b94505060206123f187828801612118565b935050604061240287828801612063565b925050606085013567ffffffffffffffff81111561242357612422611ec7565b5b61242f8782880161238a565b91505092959194509250565b600067ffffffffffffffff8211156124565761245561228d565b5b61245f82611fd6565b9050602081019050919050565b600061247f61247a8461243b565b6122ed565b90508281526020810184848401111561249b5761249a612288565b5b6124a6848285612339565b509392505050565b600082601f8301126124c3576124c2612283565b5b81356124d384826020860161246c565b91505092915050565b6000602082840312156124f2576124f1611ec2565b5b600082013567ffffffffffffffff8111156125105761250f611ec7565b5b61251c848285016124ae565b91505092915050565b6000806040838503121561253c5761253b611ec2565b5b600061254a85828601612118565b925050602061255b85828601612118565b9150509250929050565b7f4e487b7100000000000000000000000000000000000000000000000000000000600052602260045260246000fd5b600060028204905060018216806125ac57607f821691505b602082108114156125c0576125bf612565565b5b50919050565b7f4552433732313a20617070726f76656420717565727920666f72206e6f6e657860008201527f697374656e7420746f6b656e0000000000000000000000000000000000000000602082015250565b6000612622602c83611f92565b915061262d826125c6565b604082019050919050565b6000602082019050818103600083015261265181612615565b9050919050565b7f4552433732313a20617070726f76616c20746f2063757272656e74206f776e6560008201527f7200000000000000000000000000000000000000000000000000000000000000602082015250565b60006126b4602183611f92565b91506126bf82612658565b604082019050919050565b600060208201905081810360008301526126e3816126a7565b9050919050565b7f4552433732313a20617070726f76652063616c6c6572206973206e6f74206f7760008201527f6e6572206e6f7220617070726f76656420666f7220616c6c0000000000000000602082015250565b6000612746603883611f92565b9150612751826126ea565b604082019050919050565b6000602082019050818103600083015261277581612739565b9050919050565b7f4552433732313a207472616e736665722063616c6c6572206973206e6f74206f60008201527f776e6572206e6f7220617070726f766564000000000000000000000000000000602082015250565b60006127d8603183611f92565b91506127e38261277c565b604082019050919050565b60006020820190508181036000830152612807816127cb565b9050919050565b7f455243373231456e756d657261626c653a206f776e657220696e646578206f7560008201527f74206f6620626f756e6473000000000000000000000000000000000000000000602082015250565b600061286a602b83611f92565b91506128758261280e565b604082019050919050565b600060208201905081810360008301526128998161285d565b9050919050565b7f455243373231456e756d657261626c653a20676c6f62616c20696e646578206f60008201527f7574206f6620626f756e64730000000000000000000000000000000000000000602082015250565b60006128fc602c83611f92565b9150612907826128a0565b604082019050919050565b6000602082019050818103600083015261292b816128ef565b9050919050565b7f4e487b7100000000000000000000000000000000000000000000000000000000600052603260045260246000fd5b7f4552433732313a206f776e657220717565727920666f72206e6f6e657869737460008201527f656e7420746f6b656e0000000000000000000000000000000000000000000000602082015250565b60006129bd602983611f92565b91506129c882612961565b604082019050919050565b600060208201905081810360008301526129ec816129b0565b9050919050565b7f4552433732313a2062616c616e636520717565727920666f7220746865207a6560008201527f726f206164647265737300000000000000000000000000000000000000000000602082015250565b6000612a4f602a83611f92565b9150612a5a826129f3565b604082019050919050565b60006020820190508181036000830152612a7e81612a42565b9050919050565b7f4552433732313a20617070726f766520746f2063616c6c657200000000000000600082015250565b6000612abb601983611f92565b9150612ac682612a85565b602082019050919050565b60006020820190508181036000830152612aea81612aae565b9050919050565b7f4552433732314d657461646174613a2055524920717565727920666f72206e6f60008201527f6e6578697374656e7420746f6b656e0000000000000000000000000000000000602082015250565b6000612b4d602f83611f92565b9150612b5882612af1565b604082019050919050565b60006020820190508181036000830152612b7c81612b40565b9050919050565b600081905092915050565b6000612b9982611f87565b612ba38185612b83565b9350612bb3818560208601611fa3565b80840191505092915050565b6000612bcb8285612b8e565b9150612bd78284612b8e565b91508190509392505050565b7f4e487b7100000000000000000000000000000000000000000000000000000000600052601160045260246000fd5b6000612c1d82612042565b9150612c2883612042565b925082821015612c3b57612c3a612be3565b5b828203905092915050565b6000612c528284612b8e565b915081905092915050565b7f4552433732313a206f70657261746f7220717565727920666f72206e6f6e657860008201527f697374656e7420746f6b656e0000000000000000000000000000000000000000602082015250565b6000612cb9602c83611f92565b9150612cc482612c5d565b604082019050919050565b60006020820190508181036000830152612ce881612cac565b9050919050565b7f4552433732313a207472616e73666572206f6620746f6b656e2074686174206960008201527f73206e6f74206f776e0000000000000000000000000000000000000000000000602082015250565b6000612d4b602983611f92565b9150612d5682612cef565b604082019050919050565b60006020820190508181036000830152612d7a81612d3e565b9050919050565b7f4552433732313a207472616e7366657220746f20746865207a65726f2061646460008201527f7265737300000000000000000000000000000000000000000000000000000000602082015250565b6000612ddd602483611f92565b9150612de882612d81565b604082019050919050565b60006020820190508181036000830152612e0c81612dd0565b9050919050565b6000612e1e82612042565b9150612e2983612042565b9250827fffffffffffffffffffffffffffffffffffffffffffffffffffffffffffffffff03821115612e5e57612e5d612be3565b5b828201905092915050565b7f4552433732313a207472616e7366657220746f206e6f6e20455243373231526560008201527f63656976657220696d706c656d656e7465720000000000000000000000000000602082015250565b6000612ec5603283611f92565b9150612ed082612e69565b604082019050919050565b60006020820190508181036000830152612ef481612eb8565b9050919050565b6000612f0682612042565b91507fffffffffffffffffffffffffffffffffffffffffffffffffffffffffffffffff821415612f3957612f38612be3565b5b600182019050919050565b7f4e487b7100000000000000000000000000000000000000000000000000000000600052601260045260246000fd5b6000612f7e82612042565b9150612f8983612042565b925082612f9957612f98612f44565b5b828204905092915050565b6000612faf82612042565b9150612fba83612042565b925082612fca57612fc9612f44565b5b828206905092915050565b7f4552433732313a206d696e7420746f20746865207a65726f2061646472657373600082015250565b600061300b602083611f92565b915061301682612fd5565b602082019050919050565b6000602082019050818103600083015261303a81612ffe565b9050919050565b7f4552433732313a20746f6b656e20616c7265616479206d696e74656400000000600082015250565b6000613077601c83611f92565b915061308282613041565b602082019050919050565b600060208201905081810360008301526130a68161306a565b9050919050565b600081519050919050565b600082825260208201905092915050565b60006130d4826130ad565b6130de81856130b8565b93506130ee818560208601611fa3565b6130f781611fd6565b840191505092915050565b600060808201905061311760008301876120d7565b61312460208301866120d7565b613131604083018561216d565b818103606083015261314381846130c9565b905095945050505050565b60008151905061315d81611ef8565b92915050565b60006020828403121561317957613178611ec2565b5b60006131878482850161314e565b91505092915050565b7f4e487b7100000000000000000000000000000000000000000000000000000000600052603160045260246000fdfea264697066735822122091ac5b6e76d2e02ca42888f3cf9b27c9b043f17fc7250de2bb1e7127e8ec8ce664736f6c63430008090033",
  "immutableReferences": {},
  "source": "// SPDX-License-Identifier: MIT    \r\npragma solidity ^0.8.0;\r\n    \r\nimport \"@openzeppelin/contracts/token/ERC721/ERC721.sol\";\r\nimport \"@openzeppelin/contracts/token/ERC721/extensions/ERC721Enumerable.sol\";\r\n\r\ncontract Color is ERC721, ERC721Enumerable{\r\n\r\n  string[] public colors;\r\n  mapping(string => bool) _colorExists;\r\n\r\n  constructor () ERC721(\"Color\", \"COLORS\") {}\r\n\r\n  function _beforeTokenTransfer(address from, address to, uint256 tokenId) internal override(ERC721, ERC721Enumerable) {\r\n    super._beforeTokenTransfer(from, to, tokenId);\r\n  }\r\n\r\n  function supportsInterface(bytes4 interfaceId) public view override(ERC721, ERC721Enumerable) returns (bool) {\r\n    return super.supportsInterface(interfaceId);\r\n  }\r\n\r\n  function mint(string memory _color) public{\r\n    colors.push(_color);\r\n    uint _id = colors.length-1;\r\n    _mint(msg.sender, _id);\r\n    _colorExists[_color] = true;\r\n  }\r\n\r\n\r\n  \r\n}",
  "sourcePath": "C:\\Users\\d\\nft\\src\\contracts\\Color.sol",
  "compiler": {
    "name": "solc",
    "version": "0.8.9+commit.e5eed63a.Emscripten.clang"
  },
  "schemaVersion": "3.4.3",
  "updatedAt": "2021-10-22T13:22:17.239Z",
  "devdoc": {
    "kind": "dev",
    "methods": {
      "approve(address,uint256)": {
        "details": "See {IERC721-approve}."
      },
      "balanceOf(address)": {
        "details": "See {IERC721-balanceOf}."
      },
      "getApproved(uint256)": {
        "details": "See {IERC721-getApproved}."
      },
      "isApprovedForAll(address,address)": {
        "details": "See {IERC721-isApprovedForAll}."
      },
      "name()": {
        "details": "See {IERC721Metadata-name}."
      },
      "ownerOf(uint256)": {
        "details": "See {IERC721-ownerOf}."
      },
      "safeTransferFrom(address,address,uint256)": {
        "details": "See {IERC721-safeTransferFrom}."
      },
      "safeTransferFrom(address,address,uint256,bytes)": {
        "details": "See {IERC721-safeTransferFrom}."
      },
      "setApprovalForAll(address,bool)": {
        "details": "See {IERC721-setApprovalForAll}."
      },
      "symbol()": {
        "details": "See {IERC721Metadata-symbol}."
      },
      "tokenByIndex(uint256)": {
        "details": "See {IERC721Enumerable-tokenByIndex}."
      },
      "tokenOfOwnerByIndex(address,uint256)": {
        "details": "See {IERC721Enumerable-tokenOfOwnerByIndex}."
      },
      "tokenURI(uint256)": {
        "details": "See {IERC721Metadata-tokenURI}."
      },
      "totalSupply()": {
        "details": "See {IERC721Enumerable-totalSupply}."
      },
      "transferFrom(address,address,uint256)": {
        "details": "See {IERC721-transferFrom}."
      }
    },
    "version": 1
  },
  "userdoc": {
    "kind": "user",
    "methods": {},
    "version": 1
  }
}