{
  "contractName": "Color",
  "abi": [
    {
      "inputs": [],
      "stateMutability": "nonpayable",
      "type": "constructor"
    },
    {
      "anonymous": false,
      "inputs": [
        {
          "indexed": true,
          "internalType": "address",
          "name": "owner",
          "type": "address"
        },
        {
          "indexed": true,
          "internalType": "address",
          "name": "approved",
          "type": "address"
        },
        {
          "indexed": true,
          "internalType": "uint256",
          "name": "tokenId",
          "type": "uint256"
        }
      ],
      "name": "Approval",
      "type": "event"
    },
    {
      "anonymous": false,
      "inputs": [
        {
          "indexed": true,
          "internalType": "address",
          "name": "owner",
          "type": "address"
        },
        {
          "indexed": true,
          "internalType": "address",
          "name": "operator",
          "type": "address"
        },
        {
          "indexed": false,
          "internalType": "bool",
          "name": "approved",
          "type": "bool"
        }
      ],
      "name": "ApprovalForAll",
      "type": "event"
    },
    {
      "anonymous": false,
      "inputs": [
        {
          "indexed": true,
          "internalType": "address",
          "name": "from",
          "type": "address"
        },
        {
          "indexed": true,
          "internalType": "address",
          "name": "to",
          "type": "address"
        },
        {
          "indexed": true,
          "internalType": "uint256",
          "name": "tokenId",
          "type": "uint256"
        }
      ],
      "name": "Transfer",
      "type": "event"
    },
    {
      "inputs": [
        {
          "internalType": "address",
          "name": "to",
          "type": "address"
        },
        {
          "internalType": "uint256",
          "name": "tokenId",
          "type": "uint256"
        }
      ],
      "name": "approve",
      "outputs": [],
      "stateMutability": "nonpayable",
      "type": "function"
    },
    {
      "inputs": [
        {
          "internalType": "address",
          "name": "owner",
          "type": "address"
        }
      ],
      "name": "balanceOf",
      "outputs": [
        {
          "internalType": "uint256",
          "name": "",
          "type": "uint256"
        }
      ],
      "stateMutability": "view",
      "type": "function",
      "constant": true
    },
    {
      "inputs": [
        {
          "internalType": "uint256",
          "name": "",
          "type": "uint256"
        }
      ],
      "name": "colors",
      "outputs": [
        {
          "internalType": "string",
          "name": "",
          "type": "string"
        }
      ],
      "stateMutability": "view",
      "type": "function",
      "constant": true
    },
    {
      "inputs": [
        {
          "internalType": "uint256",
          "name": "tokenId",
          "type": "uint256"
        }
      ],
      "name": "getApproved",
      "outputs": [
        {
          "internalType": "address",
          "name": "",
          "type": "address"
        }
      ],
      "stateMutability": "view",
      "type": "function",
      "constant": true
    },
    {
      "inputs": [
        {
          "internalType": "address",
          "name": "owner",
          "type": "address"
        },
        {
          "internalType": "address",
          "name": "operator",
          "type": "address"
        }
      ],
      "name": "isApprovedForAll",
      "outputs": [
        {
          "internalType": "bool",
          "name": "",
          "type": "bool"
        }
      ],
      "stateMutability": "view",
      "type": "function",
      "constant": true
    },
    {
      "inputs": [],
      "name": "name",
      "outputs": [
        {
          "internalType": "string",
          "name": "",
          "type": "string"
        }
      ],
      "stateMutability": "view",
      "type": "function",
      "constant": true
    },
    {
      "inputs": [
        {
          "internalType": "uint256",
          "name": "tokenId",
          "type": "uint256"
        }
      ],
      "name": "ownerOf",
      "outputs": [
        {
          "internalType": "address",
          "name": "",
          "type": "address"
        }
      ],
      "stateMutability": "view",
      "type": "function",
      "constant": true
    },
    {
      "inputs": [
        {
          "internalType": "address",
          "name": "from",
          "type": "address"
        },
        {
          "internalType": "address",
          "name": "to",
          "type": "address"
        },
        {
          "internalType": "uint256",
          "name": "tokenId",
          "type": "uint256"
        }
      ],
      "name": "safeTransferFrom",
      "outputs": [],
      "stateMutability": "nonpayable",
      "type": "function"
    },
    {
      "inputs": [
        {
          "internalType": "address",
          "name": "from",
          "type": "address"
        },
        {
          "internalType": "address",
          "name": "to",
          "type": "address"
        },
        {
          "internalType": "uint256",
          "name": "tokenId",
          "type": "uint256"
        },
        {
          "internalType": "bytes",
          "name": "_data",
          "type": "bytes"
        }
      ],
      "name": "safeTransferFrom",
      "outputs": [],
      "stateMutability": "nonpayable",
      "type": "function"
    },
    {
      "inputs": [
        {
          "internalType": "address",
          "name": "operator",
          "type": "address"
        },
        {
          "internalType": "bool",
          "name": "approved",
          "type": "bool"
        }
      ],
      "name": "setApprovalForAll",
      "outputs": [],
      "stateMutability": "nonpayable",
      "type": "function"
    },
    {
      "inputs": [],
      "name": "symbol",
      "outputs": [
        {
          "internalType": "string",
          "name": "",
          "type": "string"
        }
      ],
      "stateMutability": "view",
      "type": "function",
      "constant": true
    },
    {
      "inputs": [
        {
          "internalType": "uint256",
          "name": "index",
          "type": "uint256"
        }
      ],
      "name": "tokenByIndex",
      "outputs": [
        {
          "internalType": "uint256",
          "name": "",
          "type": "uint256"
        }
      ],
      "stateMutability": "view",
      "type": "function",
      "constant": true
    },
    {
      "inputs": [
        {
          "internalType": "address",
          "name": "owner",
          "type": "address"
        },
        {
          "internalType": "uint256",
          "name": "index",
          "type": "uint256"
        }
      ],
      "name": "tokenOfOwnerByIndex",
      "outputs": [
        {
          "internalType": "uint256",
          "name": "",
          "type": "uint256"
        }
      ],
      "stateMutability": "view",
      "type": "function",
      "constant": true
    },
    {
      "inputs": [
        {
          "internalType": "uint256",
          "name": "tokenId",
          "type": "uint256"
        }
      ],
      "name": "tokenURI",
      "outputs": [
        {
          "internalType": "string",
          "name": "",
          "type": "string"
        }
      ],
      "stateMutability": "view",
      "type": "function",
      "constant": true
    },
    {
      "inputs": [],
      "name": "totalSupply",
      "outputs": [
        {
          "internalType": "uint256",
          "name": "",
          "type": "uint256"
        }
      ],
      "stateMutability": "view",
      "type": "function",
      "constant": true
    },
    {
      "inputs": [
        {
          "internalType": "address",
          "name": "from",
          "type": "address"
        },
        {
          "internalType": "address",
          "name": "to",
          "type": "address"
        },
        {
          "internalType": "uint256",
          "name": "tokenId",
          "type": "uint256"
        }
      ],
      "name": "transferFrom",
      "outputs": [],
      "stateMutability": "nonpayable",
      "type": "function"
    },
    {
      "inputs": [
        {
          "internalType": "bytes4",
          "name": "interfaceId",
          "type": "bytes4"
        }
      ],
      "name": "supportsInterface",
      "outputs": [
        {
          "internalType": "bool",
          "name": "",
          "type": "bool"
        }
      ],
      "stateMutability": "view",
      "type": "function",
      "constant": true
    },
    {
      "inputs": [
        {
          "internalType": "string",
          "name": "_color",
          "type": "string"
        }
      ],
      "name": "mint",
      "outputs": [],
      "stateMutability": "nonpayable",
      "type": "function"
    },
    {
      "inputs": [
        {
          "internalType": "uint256",
          "name": "tokenID",
          "type": "uint256"
        }
      ],
      "name": "burn",
      "outputs": [],
      "stateMutability": "nonpayable",
      "type": "function"
    },
    {
      "inputs": [],
      "name": "findOwnTokens",
      "outputs": [
        {
          "internalType": "uint256[]",
          "name": "",
          "type": "uint256[]"
        }
      ],
      "stateMutability": "nonpayable",
      "type": "function"
    }
  ],
  "bytecode": "0x60806040523480156200001157600080fd5b506040518060400160405280600581526020017f436f6c6f720000000000000000000000000000000000000000000000000000008152506040518060400160405280600681526020017f434f4c4f52530000000000000000000000000000000000000000000000000000815250816000908051906020019062000096929190620000b8565b508060019080519060200190620000af929190620000b8565b505050620001cd565b828054620000c69062000197565b90600052602060002090601f016020900481019282620000ea576000855562000136565b82601f106200010557805160ff191683800117855562000136565b8280016001018555821562000136579182015b828111156200013557825182559160200191906001019062000118565b5b50905062000145919062000149565b5090565b5b80821115620001645760008160009055506001016200014a565b5090565b7f4e487b7100000000000000000000000000000000000000000000000000000000600052602260045260246000fd5b60006002820490506001821680620001b057607f821691505b60208210811415620001c757620001c662000168565b5b50919050565b61396180620001dd6000396000f3fe608060405234801561001057600080fd5b506004361061012c5760003560e01c80634f6ccce7116100ad578063b88d4fde11610071578063b88d4fde14610355578063bd11f69d14610371578063c87b56dd146103a1578063d85d3d27146103d1578063e985e9c5146103ed5761012c565b80634f6ccce71461028b5780636352211e146102bb57806370a08231146102eb57806395d89b411461031b578063a22cb465146103395761012c565b806323b872dd116100f457806323b872dd146101e957806324fcfca2146102055780632f745c591461022357806342842e0e1461025357806342966c681461026f5761012c565b806301ffc9a71461013157806306fdde0314610161578063081812fc1461017f578063095ea7b3146101af57806318160ddd146101cb575b600080fd5b61014b60048036038101906101469190612460565b61041d565b60405161015891906124a8565b60405180910390f35b61016961042f565b604051610176919061255c565b60405180910390f35b610199600480360381019061019491906125b4565b6104c1565b6040516101a69190612622565b60405180910390f35b6101c960048036038101906101c49190612669565b610546565b005b6101d361065e565b6040516101e091906126b8565b60405180910390f35b61020360048036038101906101fe91906126d3565b61066b565b005b61020d6106cb565b60405161021a91906127e4565b60405180910390f35b61023d60048036038101906102389190612669565b6107fb565b60405161024a91906126b8565b60405180910390f35b61026d600480360381019061026891906126d3565b6108a0565b005b610289600480360381019061028491906125b4565b6108c0565b005b6102a560048036038101906102a091906125b4565b61094a565b6040516102b291906126b8565b60405180910390f35b6102d560048036038101906102d091906125b4565b6109bb565b6040516102e29190612622565b60405180910390f35b61030560048036038101906103009190612806565b610a6d565b60405161031291906126b8565b60405180910390f35b610323610b25565b604051610330919061255c565b60405180910390f35b610353600480360381019061034e919061285f565b610bb7565b005b61036f600480360381019061036a91906129d4565b610d38565b005b61038b600480360381019061038691906125b4565b610d9a565b604051610398919061255c565b60405180910390f35b6103bb60048036038101906103b691906125b4565b610e46565b6040516103c8919061255c565b60405180910390f35b6103eb60048036038101906103e69190612af8565b610eed565b005b61040760048036038101906104029190612b41565b610fc4565b60405161041491906124a8565b60405180910390f35b600061042882611058565b9050919050565b60606000805461043e90612bb0565b80601f016020809104026020016040519081016040528092919081815260200182805461046a90612bb0565b80156104b75780601f1061048c576101008083540402835291602001916104b7565b820191906000526020600020905b81548152906001019060200180831161049a57829003601f168201915b5050505050905090565b60006104cc826110d2565b61050b576040517f08c379a000000000000000000000000000000000000000000000000000000000815260040161050290612c54565b60405180910390fd5b6004600083815260200190815260200160002060009054906101000a900473ffffffffffffffffffffffffffffffffffffffff169050919050565b6000610551826109bb565b90508073ffffffffffffffffffffffffffffffffffffffff168373ffffffffffffffffffffffffffffffffffffffff1614156105c2576040517f08c379a00000000000000000000000000000000000000000000000000000000081526004016105b990612ce6565b60405180910390fd5b8073ffffffffffffffffffffffffffffffffffffffff166105e161113e565b73ffffffffffffffffffffffffffffffffffffffff161480610610575061060f8161060a61113e565b610fc4565b5b61064f576040517f08c379a000000000000000000000000000000000000000000000000000000000815260040161064690612d78565b60405180910390fd5b6106598383611146565b505050565b6000600880549050905090565b61067c61067661113e565b826111ff565b6106bb576040517f08c379a00000000000000000000000000000000000000000000000000000000081526004016106b290612e0a565b60405180910390fd5b6106c68383836112dd565b505050565b606060006106d833610a6d565b9050600033905061071e6040518060400160405280600e81526020017f6d73672e73656e646572313a257300000000000000000000000000000000000081525033611539565b61075d6040518060400160405280600881526020017f62616c616e63653a000000000000000000000000000000000000000000000000815250836115d5565b60008267ffffffffffffffff811115610779576107786128a9565b5b6040519080825280602002602001820160405280156107a75781602001602082028036833780820191505090505b50905060005b838110156107f1576107bf83826107fb565b8282815181106107d2576107d1612e2a565b5b60200260200101818152505080806107e990612e88565b9150506107ad565b5080935050505090565b600061080683610a6d565b8210610847576040517f08c379a000000000000000000000000000000000000000000000000000000000815260040161083e90612f43565b60405180910390fd5b600660008473ffffffffffffffffffffffffffffffffffffffff1673ffffffffffffffffffffffffffffffffffffffff168152602001908152602001600020600083815260200190815260200160002054905092915050565b6108bb83838360405180602001604052806000815250610d38565b505050565b6000600b600a83815481106108d8576108d7612e2a565b5b906000526020600020016040516108ef9190613002565b908152602001604051809103902060006101000a81548160ff021916908315150217905550600a818154811061092857610927612e2a565b5b90600052602060002001600061093e9190612311565b61094781611671565b50565b600061095461065e565b8210610995576040517f08c379a000000000000000000000000000000000000000000000000000000000815260040161098c9061308b565b60405180910390fd5b600882815481106109a9576109a8612e2a565b5b90600052602060002001549050919050565b6000806002600084815260200190815260200160002060009054906101000a900473ffffffffffffffffffffffffffffffffffffffff169050600073ffffffffffffffffffffffffffffffffffffffff168173ffffffffffffffffffffffffffffffffffffffff161415610a64576040517f08c379a0000000000000000000000000000000000000000000000000000000008152600401610a5b9061311d565b60405180910390fd5b80915050919050565b60008073ffffffffffffffffffffffffffffffffffffffff168273ffffffffffffffffffffffffffffffffffffffff161415610ade576040517f08c379a0000000000000000000000000000000000000000000000000000000008152600401610ad5906131af565b60405180910390fd5b600360008373ffffffffffffffffffffffffffffffffffffffff1673ffffffffffffffffffffffffffffffffffffffff168152602001908152602001600020549050919050565b606060018054610b3490612bb0565b80601f0160208091040260200160405190810160405280929190818152602001828054610b6090612bb0565b8015610bad5780601f10610b8257610100808354040283529160200191610bad565b820191906000526020600020905b815481529060010190602001808311610b9057829003601f168201915b5050505050905090565b610bbf61113e565b73ffffffffffffffffffffffffffffffffffffffff168273ffffffffffffffffffffffffffffffffffffffff161415610c2d576040517f08c379a0000000000000000000000000000000000000000000000000000000008152600401610c249061321b565b60405180910390fd5b8060056000610c3a61113e565b73ffffffffffffffffffffffffffffffffffffffff1673ffffffffffffffffffffffffffffffffffffffff16815260200190815260200160002060008473ffffffffffffffffffffffffffffffffffffffff1673ffffffffffffffffffffffffffffffffffffffff16815260200190815260200160002060006101000a81548160ff0219169083151502179055508173ffffffffffffffffffffffffffffffffffffffff16610ce761113e565b73ffffffffffffffffffffffffffffffffffffffff167f17307eab39ab6107e8899845ad3d59bd9653f200f220920489ca2b5937696c3183604051610d2c91906124a8565b60405180910390a35050565b610d49610d4361113e565b836111ff565b610d88576040517f08c379a0000000000000000000000000000000000000000000000000000000008152600401610d7f90612e0a565b60405180910390fd5b610d9484848484611782565b50505050565b600a8181548110610daa57600080fd5b906000526020600020016000915090508054610dc590612bb0565b80601f0160208091040260200160405190810160405280929190818152602001828054610df190612bb0565b8015610e3e5780601f10610e1357610100808354040283529160200191610e3e565b820191906000526020600020905b815481529060010190602001808311610e2157829003601f168201915b505050505081565b6060610e51826110d2565b610e90576040517f08c379a0000000000000000000000000000000000000000000000000000000008152600401610e87906132ad565b60405180910390fd5b6000610e9a6117de565b90506000815111610eba5760405180602001604052806000815250610ee5565b80610ec4846117f5565b604051602001610ed59291906132fe565b6040516020818303038152906040525b915050919050565b600a81908060018154018082558091505060019003906000526020600020016000909190919091509080519060200190610f28929190612351565b5060006001600a80549050610f3d9190613322565b9050610f493382611956565b6001600b83604051610f5b9190613356565b908152602001604051809103902060006101000a81548160ff021916908315150217905550610fc06040518060400160405280601581526020017f546f6b656e49443a2573202020436f6c6f723a257300000000000000000000008152508284611b24565b5050565b6000600560008473ffffffffffffffffffffffffffffffffffffffff1673ffffffffffffffffffffffffffffffffffffffff16815260200190815260200160002060008373ffffffffffffffffffffffffffffffffffffffff1673ffffffffffffffffffffffffffffffffffffffff16815260200190815260200160002060009054906101000a900460ff16905092915050565b60007f780e9d63000000000000000000000000000000000000000000000000000000007bffffffffffffffffffffffffffffffffffffffffffffffffffffffff1916827bffffffffffffffffffffffffffffffffffffffffffffffffffffffff191614806110cb57506110ca82611bc3565b5b9050919050565b60008073ffffffffffffffffffffffffffffffffffffffff166002600084815260200190815260200160002060009054906101000a900473ffffffffffffffffffffffffffffffffffffffff1673ffffffffffffffffffffffffffffffffffffffff1614159050919050565b600033905090565b816004600083815260200190815260200160002060006101000a81548173ffffffffffffffffffffffffffffffffffffffff021916908373ffffffffffffffffffffffffffffffffffffffff160217905550808273ffffffffffffffffffffffffffffffffffffffff166111b9836109bb565b73ffffffffffffffffffffffffffffffffffffffff167f8c5be1e5ebec7d5bd14f71427d1e84f3dd0314c0f7b2291e5b200ac8c7c3b92560405160405180910390a45050565b600061120a826110d2565b611249576040517f08c379a0000000000000000000000000000000000000000000000000000000008152600401611240906133df565b60405180910390fd5b6000611254836109bb565b90508073ffffffffffffffffffffffffffffffffffffffff168473ffffffffffffffffffffffffffffffffffffffff1614806112c357508373ffffffffffffffffffffffffffffffffffffffff166112ab846104c1565b73ffffffffffffffffffffffffffffffffffffffff16145b806112d457506112d38185610fc4565b5b91505092915050565b8273ffffffffffffffffffffffffffffffffffffffff166112fd826109bb565b73ffffffffffffffffffffffffffffffffffffffff1614611353576040517f08c379a000000000000000000000000000000000000000000000000000000000815260040161134a90613471565b60405180910390fd5b600073ffffffffffffffffffffffffffffffffffffffff168273ffffffffffffffffffffffffffffffffffffffff1614156113c3576040517f08c379a00000000000000000000000000000000000000000000000000000000081526004016113ba90613503565b60405180910390fd5b6113ce838383611ca5565b6113d9600082611146565b6001600360008573ffffffffffffffffffffffffffffffffffffffff1673ffffffffffffffffffffffffffffffffffffffff16815260200190815260200160002060008282546114299190613322565b925050819055506001600360008473ffffffffffffffffffffffffffffffffffffffff1673ffffffffffffffffffffffffffffffffffffffff16815260200190815260200160002060008282546114809190613523565b92505081905550816002600083815260200190815260200160002060006101000a81548173ffffffffffffffffffffffffffffffffffffffff021916908373ffffffffffffffffffffffffffffffffffffffff160217905550808273ffffffffffffffffffffffffffffffffffffffff168473ffffffffffffffffffffffffffffffffffffffff167fddf252ad1be2c89b69c2b068fc378daa952ba7f163c4a11628f55a4df523b3ef60405160405180910390a4505050565b6115d1828260405160240161154f929190613579565b6040516020818303038152906040527f319af333000000000000000000000000000000000000000000000000000000007bffffffffffffffffffffffffffffffffffffffffffffffffffffffff19166020820180517bffffffffffffffffffffffffffffffffffffffffffffffffffffffff8381831617835250505050611cb5565b5050565b61166d82826040516024016115eb9291906135a9565b6040516020818303038152906040527f9710a9d0000000000000000000000000000000000000000000000000000000007bffffffffffffffffffffffffffffffffffffffffffffffffffffffff19166020820180517bffffffffffffffffffffffffffffffffffffffffffffffffffffffff8381831617835250505050611cb5565b5050565b600061167c826109bb565b905061168a81600084611ca5565b611695600083611146565b6001600360008373ffffffffffffffffffffffffffffffffffffffff1673ffffffffffffffffffffffffffffffffffffffff16815260200190815260200160002060008282546116e59190613322565b925050819055506002600083815260200190815260200160002060006101000a81549073ffffffffffffffffffffffffffffffffffffffff021916905581600073ffffffffffffffffffffffffffffffffffffffff168273ffffffffffffffffffffffffffffffffffffffff167fddf252ad1be2c89b69c2b068fc378daa952ba7f163c4a11628f55a4df523b3ef60405160405180910390a45050565b61178d8484846112dd565b61179984848484611cde565b6117d8576040517f08c379a00000000000000000000000000000000000000000000000000000000081526004016117cf9061364b565b60405180910390fd5b50505050565b606060405180602001604052806000815250905090565b6060600082141561183d576040518060400160405280600181526020017f30000000000000000000000000000000000000000000000000000000000000008152509050611951565b600082905060005b6000821461186f57808061185890612e88565b915050600a82611868919061369a565b9150611845565b60008167ffffffffffffffff81111561188b5761188a6128a9565b5b6040519080825280601f01601f1916602001820160405280156118bd5781602001600182028036833780820191505090505b5090505b6000851461194a576001826118d69190613322565b9150600a856118e591906136cb565b60306118f19190613523565b60f81b81838151811061190757611906612e2a565b5b60200101907effffffffffffffffffffffffffffffffffffffffffffffffffffffffffffff1916908160001a905350600a85611943919061369a565b94506118c1565b8093505050505b919050565b600073ffffffffffffffffffffffffffffffffffffffff168273ffffffffffffffffffffffffffffffffffffffff1614156119c6576040517f08c379a00000000000000000000000000000000000000000000000000000000081526004016119bd90613748565b60405180910390fd5b6119cf816110d2565b15611a0f576040517f08c379a0000000000000000000000000000000000000000000000000000000008152600401611a06906137b4565b60405180910390fd5b611a1b60008383611ca5565b6001600360008473ffffffffffffffffffffffffffffffffffffffff1673ffffffffffffffffffffffffffffffffffffffff1681526020019081526020016000206000828254611a6b9190613523565b92505081905550816002600083815260200190815260200160002060006101000a81548173ffffffffffffffffffffffffffffffffffffffff021916908373ffffffffffffffffffffffffffffffffffffffff160217905550808273ffffffffffffffffffffffffffffffffffffffff16600073ffffffffffffffffffffffffffffffffffffffff167fddf252ad1be2c89b69c2b068fc378daa952ba7f163c4a11628f55a4df523b3ef60405160405180910390a45050565b611bbe838383604051602401611b3c939291906137d4565b6040516020818303038152906040527fa3f5c739000000000000000000000000000000000000000000000000000000007bffffffffffffffffffffffffffffffffffffffffffffffffffffffff19166020820180517bffffffffffffffffffffffffffffffffffffffffffffffffffffffff8381831617835250505050611cb5565b505050565b60007f80ac58cd000000000000000000000000000000000000000000000000000000007bffffffffffffffffffffffffffffffffffffffffffffffffffffffff1916827bffffffffffffffffffffffffffffffffffffffffffffffffffffffff19161480611c8e57507f5b5e139f000000000000000000000000000000000000000000000000000000007bffffffffffffffffffffffffffffffffffffffffffffffffffffffff1916827bffffffffffffffffffffffffffffffffffffffffffffffffffffffff1916145b80611c9e5750611c9d82611e75565b5b9050919050565b611cb0838383611edf565b505050565b60008151905060006a636f6e736f6c652e6c6f679050602083016000808483855afa5050505050565b6000611cff8473ffffffffffffffffffffffffffffffffffffffff16611ff3565b15611e68578373ffffffffffffffffffffffffffffffffffffffff1663150b7a02611d2861113e565b8786866040518563ffffffff1660e01b8152600401611d4a949392919061386e565b602060405180830381600087803b158015611d6457600080fd5b505af1925050508015611d9557506040513d601f19601f82011682018060405250810190611d9291906138cf565b60015b611e18573d8060008114611dc5576040519150601f19603f3d011682016040523d82523d6000602084013e611dca565b606091505b50600081511415611e10576040517f08c379a0000000000000000000000000000000000000000000000000000000008152600401611e079061364b565b60405180910390fd5b805181602001fd5b63150b7a0260e01b7bffffffffffffffffffffffffffffffffffffffffffffffffffffffff1916817bffffffffffffffffffffffffffffffffffffffffffffffffffffffff191614915050611e6d565b600190505b949350505050565b60007f01ffc9a7000000000000000000000000000000000000000000000000000000007bffffffffffffffffffffffffffffffffffffffffffffffffffffffff1916827bffffffffffffffffffffffffffffffffffffffffffffffffffffffff1916149050919050565b611eea838383612006565b600073ffffffffffffffffffffffffffffffffffffffff168373ffffffffffffffffffffffffffffffffffffffff161415611f2d57611f288161200b565b611f6c565b8173ffffffffffffffffffffffffffffffffffffffff168373ffffffffffffffffffffffffffffffffffffffff1614611f6b57611f6a8382612054565b5b5b600073ffffffffffffffffffffffffffffffffffffffff168273ffffffffffffffffffffffffffffffffffffffff161415611faf57611faa816121c1565b611fee565b8273ffffffffffffffffffffffffffffffffffffffff168273ffffffffffffffffffffffffffffffffffffffff1614611fed57611fec8282612292565b5b5b505050565b600080823b905060008111915050919050565b505050565b6008805490506009600083815260200190815260200160002081905550600881908060018154018082558091505060019003906000526020600020016000909190919091505550565b6000600161206184610a6d565b61206b9190613322565b9050600060076000848152602001908152602001600020549050818114612150576000600660008673ffffffffffffffffffffffffffffffffffffffff1673ffffffffffffffffffffffffffffffffffffffff168152602001908152602001600020600084815260200190815260200160002054905080600660008773ffffffffffffffffffffffffffffffffffffffff1673ffffffffffffffffffffffffffffffffffffffff168152602001908152602001600020600084815260200190815260200160002081905550816007600083815260200190815260200160002081905550505b6007600084815260200190815260200160002060009055600660008573ffffffffffffffffffffffffffffffffffffffff1673ffffffffffffffffffffffffffffffffffffffff16815260200190815260200160002060008381526020019081526020016000206000905550505050565b600060016008805490506121d59190613322565b905060006009600084815260200190815260200160002054905060006008838154811061220557612204612e2a565b5b90600052602060002001549050806008838154811061222757612226612e2a565b5b906000526020600020018190555081600960008381526020019081526020016000208190555060096000858152602001908152602001600020600090556008805480612276576122756138fc565b5b6001900381819060005260206000200160009055905550505050565b600061229d83610a6d565b905081600660008573ffffffffffffffffffffffffffffffffffffffff1673ffffffffffffffffffffffffffffffffffffffff168152602001908152602001600020600083815260200190815260200160002081905550806007600084815260200190815260200160002081905550505050565b50805461231d90612bb0565b6000825580601f1061232f575061234e565b601f01602090049060005260206000209081019061234d91906123d7565b5b50565b82805461235d90612bb0565b90600052602060002090601f01602090048101928261237f57600085556123c6565b82601f1061239857805160ff19168380011785556123c6565b828001600101855582156123c6579182015b828111156123c55782518255916020019190600101906123aa565b5b5090506123d391906123d7565b5090565b5b808211156123f05760008160009055506001016123d8565b5090565b6000604051905090565b600080fd5b600080fd5b60007fffffffff0000000000000000000000000000000000000000000000000000000082169050919050565b61243d81612408565b811461244857600080fd5b50565b60008135905061245a81612434565b92915050565b600060208284031215612476576124756123fe565b5b60006124848482850161244b565b91505092915050565b60008115159050919050565b6124a28161248d565b82525050565b60006020820190506124bd6000830184612499565b92915050565b600081519050919050565b600082825260208201905092915050565b60005b838110156124fd5780820151818401526020810190506124e2565b8381111561250c576000848401525b50505050565b6000601f19601f8301169050919050565b600061252e826124c3565b61253881856124ce565b93506125488185602086016124df565b61255181612512565b840191505092915050565b600060208201905081810360008301526125768184612523565b905092915050565b6000819050919050565b6125918161257e565b811461259c57600080fd5b50565b6000813590506125ae81612588565b92915050565b6000602082840312156125ca576125c96123fe565b5b60006125d88482850161259f565b91505092915050565b600073ffffffffffffffffffffffffffffffffffffffff82169050919050565b600061260c826125e1565b9050919050565b61261c81612601565b82525050565b60006020820190506126376000830184612613565b92915050565b61264681612601565b811461265157600080fd5b50565b6000813590506126638161263d565b92915050565b600080604083850312156126805761267f6123fe565b5b600061268e85828601612654565b925050602061269f8582860161259f565b9150509250929050565b6126b28161257e565b82525050565b60006020820190506126cd60008301846126a9565b92915050565b6000806000606084860312156126ec576126eb6123fe565b5b60006126fa86828701612654565b935050602061270b86828701612654565b925050604061271c8682870161259f565b9150509250925092565b600081519050919050565b600082825260208201905092915050565b6000819050602082019050919050565b61275b8161257e565b82525050565b600061276d8383612752565b60208301905092915050565b6000602082019050919050565b600061279182612726565b61279b8185612731565b93506127a683612742565b8060005b838110156127d75781516127be8882612761565b97506127c983612779565b9250506001810190506127aa565b5085935050505092915050565b600060208201905081810360008301526127fe8184612786565b905092915050565b60006020828403121561281c5761281b6123fe565b5b600061282a84828501612654565b91505092915050565b61283c8161248d565b811461284757600080fd5b50565b60008135905061285981612833565b92915050565b60008060408385031215612876576128756123fe565b5b600061288485828601612654565b92505060206128958582860161284a565b9150509250929050565b600080fd5b600080fd5b7f4e487b7100000000000000000000000000000000000000000000000000000000600052604160045260246000fd5b6128e182612512565b810181811067ffffffffffffffff82111715612900576128ff6128a9565b5b80604052505050565b60006129136123f4565b905061291f82826128d8565b919050565b600067ffffffffffffffff82111561293f5761293e6128a9565b5b61294882612512565b9050602081019050919050565b82818337600083830152505050565b600061297761297284612924565b612909565b905082815260208101848484011115612993576129926128a4565b5b61299e848285612955565b509392505050565b600082601f8301126129bb576129ba61289f565b5b81356129cb848260208601612964565b91505092915050565b600080600080608085870312156129ee576129ed6123fe565b5b60006129fc87828801612654565b9450506020612a0d87828801612654565b9350506040612a1e8782880161259f565b925050606085013567ffffffffffffffff811115612a3f57612a3e612403565b5b612a4b878288016129a6565b91505092959194509250565b600067ffffffffffffffff821115612a7257612a716128a9565b5b612a7b82612512565b9050602081019050919050565b6000612a9b612a9684612a57565b612909565b905082815260208101848484011115612ab757612ab66128a4565b5b612ac2848285612955565b509392505050565b600082601f830112612adf57612ade61289f565b5b8135612aef848260208601612a88565b91505092915050565b600060208284031215612b0e57612b0d6123fe565b5b600082013567ffffffffffffffff811115612b2c57612b2b612403565b5b612b3884828501612aca565b91505092915050565b60008060408385031215612b5857612b576123fe565b5b6000612b6685828601612654565b9250506020612b7785828601612654565b9150509250929050565b7f4e487b7100000000000000000000000000000000000000000000000000000000600052602260045260246000fd5b60006002820490506001821680612bc857607f821691505b60208210811415612bdc57612bdb612b81565b5b50919050565b7f4552433732313a20617070726f76656420717565727920666f72206e6f6e657860008201527f697374656e7420746f6b656e0000000000000000000000000000000000000000602082015250565b6000612c3e602c836124ce565b9150612c4982612be2565b604082019050919050565b60006020820190508181036000830152612c6d81612c31565b9050919050565b7f4552433732313a20617070726f76616c20746f2063757272656e74206f776e6560008201527f7200000000000000000000000000000000000000000000000000000000000000602082015250565b6000612cd06021836124ce565b9150612cdb82612c74565b604082019050919050565b60006020820190508181036000830152612cff81612cc3565b9050919050565b7f4552433732313a20617070726f76652063616c6c6572206973206e6f74206f7760008201527f6e6572206e6f7220617070726f76656420666f7220616c6c0000000000000000602082015250565b6000612d626038836124ce565b9150612d6d82612d06565b604082019050919050565b60006020820190508181036000830152612d9181612d55565b9050919050565b7f4552433732313a207472616e736665722063616c6c6572206973206e6f74206f60008201527f776e6572206e6f7220617070726f766564000000000000000000000000000000602082015250565b6000612df46031836124ce565b9150612dff82612d98565b604082019050919050565b60006020820190508181036000830152612e2381612de7565b9050919050565b7f4e487b7100000000000000000000000000000000000000000000000000000000600052603260045260246000fd5b7f4e487b7100000000000000000000000000000000000000000000000000000000600052601160045260246000fd5b6000612e938261257e565b91507fffffffffffffffffffffffffffffffffffffffffffffffffffffffffffffffff821415612ec657612ec5612e59565b5b600182019050919050565b7f455243373231456e756d657261626c653a206f776e657220696e646578206f7560008201527f74206f6620626f756e6473000000000000000000000000000000000000000000602082015250565b6000612f2d602b836124ce565b9150612f3882612ed1565b604082019050919050565b60006020820190508181036000830152612f5c81612f20565b9050919050565b600081905092915050565b60008190508160005260206000209050919050565b60008154612f9081612bb0565b612f9a8186612f63565b94506001821660008114612fb55760018114612fc657612ff9565b60ff19831686528186019350612ff9565b612fcf85612f6e565b60005b83811015612ff157815481890152600182019150602081019050612fd2565b838801955050505b50505092915050565b600061300e8284612f83565b915081905092915050565b7f455243373231456e756d657261626c653a20676c6f62616c20696e646578206f60008201527f7574206f6620626f756e64730000000000000000000000000000000000000000602082015250565b6000613075602c836124ce565b915061308082613019565b604082019050919050565b600060208201905081810360008301526130a481613068565b9050919050565b7f4552433732313a206f776e657220717565727920666f72206e6f6e657869737460008201527f656e7420746f6b656e0000000000000000000000000000000000000000000000602082015250565b60006131076029836124ce565b9150613112826130ab565b604082019050919050565b60006020820190508181036000830152613136816130fa565b9050919050565b7f4552433732313a2062616c616e636520717565727920666f7220746865207a6560008201527f726f206164647265737300000000000000000000000000000000000000000000602082015250565b6000613199602a836124ce565b91506131a48261313d565b604082019050919050565b600060208201905081810360008301526131c88161318c565b9050919050565b7f4552433732313a20617070726f766520746f2063616c6c657200000000000000600082015250565b60006132056019836124ce565b9150613210826131cf565b602082019050919050565b60006020820190508181036000830152613234816131f8565b9050919050565b7f4552433732314d657461646174613a2055524920717565727920666f72206e6f60008201527f6e6578697374656e7420746f6b656e0000000000000000000000000000000000602082015250565b6000613297602f836124ce565b91506132a28261323b565b604082019050919050565b600060208201905081810360008301526132c68161328a565b9050919050565b60006132d8826124c3565b6132e28185612f63565b93506132f28185602086016124df565b80840191505092915050565b600061330a82856132cd565b915061331682846132cd565b91508190509392505050565b600061332d8261257e565b91506133388361257e565b92508282101561334b5761334a612e59565b5b828203905092915050565b600061336282846132cd565b915081905092915050565b7f4552433732313a206f70657261746f7220717565727920666f72206e6f6e657860008201527f697374656e7420746f6b656e0000000000000000000000000000000000000000602082015250565b60006133c9602c836124ce565b91506133d48261336d565b604082019050919050565b600060208201905081810360008301526133f8816133bc565b9050919050565b7f4552433732313a207472616e73666572206f6620746f6b656e2074686174206960008201527f73206e6f74206f776e0000000000000000000000000000000000000000000000602082015250565b600061345b6029836124ce565b9150613466826133ff565b604082019050919050565b6000602082019050818103600083015261348a8161344e565b9050919050565b7f4552433732313a207472616e7366657220746f20746865207a65726f2061646460008201527f7265737300000000000000000000000000000000000000000000000000000000602082015250565b60006134ed6024836124ce565b91506134f882613491565b604082019050919050565b6000602082019050818103600083015261351c816134e0565b9050919050565b600061352e8261257e565b91506135398361257e565b9250827fffffffffffffffffffffffffffffffffffffffffffffffffffffffffffffffff0382111561356e5761356d612e59565b5b828201905092915050565b600060408201905081810360008301526135938185612523565b90506135a26020830184612613565b9392505050565b600060408201905081810360008301526135c38185612523565b90506135d260208301846126a9565b9392505050565b7f4552433732313a207472616e7366657220746f206e6f6e20455243373231526560008201527f63656976657220696d706c656d656e7465720000000000000000000000000000602082015250565b60006136356032836124ce565b9150613640826135d9565b604082019050919050565b6000602082019050818103600083015261366481613628565b9050919050565b7f4e487b7100000000000000000000000000000000000000000000000000000000600052601260045260246000fd5b60006136a58261257e565b91506136b08361257e565b9250826136c0576136bf61366b565b5b828204905092915050565b60006136d68261257e565b91506136e18361257e565b9250826136f1576136f061366b565b5b828206905092915050565b7f4552433732313a206d696e7420746f20746865207a65726f2061646472657373600082015250565b60006137326020836124ce565b915061373d826136fc565b602082019050919050565b6000602082019050818103600083015261376181613725565b9050919050565b7f4552433732313a20746f6b656e20616c7265616479206d696e74656400000000600082015250565b600061379e601c836124ce565b91506137a982613768565b602082019050919050565b600060208201905081810360008301526137cd81613791565b9050919050565b600060608201905081810360008301526137ee8186612523565b90506137fd60208301856126a9565b818103604083015261380f8184612523565b9050949350505050565b600081519050919050565b600082825260208201905092915050565b600061384082613819565b61384a8185613824565b935061385a8185602086016124df565b61386381612512565b840191505092915050565b60006080820190506138836000830187612613565b6138906020830186612613565b61389d60408301856126a9565b81810360608301526138af8184613835565b905095945050505050565b6000815190506138c981612434565b92915050565b6000602082840312156138e5576138e46123fe565b5b60006138f3848285016138ba565b91505092915050565b7f4e487b7100000000000000000000000000000000000000000000000000000000600052603160045260246000fdfea26469706673582212205a60127497ac80503730c9aa3605312d90403cce38b3ca761bf071e036f2786964736f6c63430008090033",
  "immutableReferences": {},
  "source": "// SPDX-License-Identifier: MIT    \r\npragma solidity ^0.8.0;\r\n    \r\nimport \"@openzeppelin/contracts/token/ERC721/ERC721.sol\";\r\nimport \"@openzeppelin/contracts/token/ERC721/extensions/ERC721Enumerable.sol\";\r\nimport \"hardhat/console.sol\";\r\n\r\ncontract Color is ERC721, ERC721Enumerable{\r\n  \r\n  string[] public colors;\r\n  mapping(string => bool) _colorExists;\r\n\r\n  constructor ()   ERC721(\"Color\", \"COLORS\") {}\r\n\r\n  function _beforeTokenTransfer(address from, address to, uint256 tokenId) internal override(ERC721, ERC721Enumerable) {\r\n    super._beforeTokenTransfer(from, to, tokenId);\r\n  }\r\n\r\n  function supportsInterface(bytes4 interfaceId) public view override(ERC721, ERC721Enumerable) returns (bool) {\r\n    return super.supportsInterface(interfaceId);\r\n  }\r\n\r\n  function mint(string memory _color) public{\r\n    colors.push(_color);\r\n    uint _id = colors.length-1;\r\n    _mint(msg.sender, _id);\r\n    _colorExists[_color] = true;\r\n    console.log(\"TokenID:%s   Color:%s\",_id,_color);\r\n  }\r\n  \r\n  function burn(uint256 tokenID) public{\r\n    \r\n    _colorExists[colors[tokenID]] = false;\r\n    delete colors[tokenID];    \r\n    _burn(tokenID);\r\n  }\r\n\r\n  function findOwnTokens() public returns(uint256[] memory) {\r\n      \r\n    uint balance = balanceOf(msg.sender);\r\n    address account = msg.sender;\r\n    console.log(\"msg.sender1:%s\",msg.sender);\r\n    console.log(\"balance:\",balance);\r\n    uint256[] memory ownedTokens = new uint256[](balance);\r\n  \r\n    \r\n    for(uint i=0; i<balance; i++){\r\n    ownedTokens[i] = tokenOfOwnerByIndex(account,i);\r\n        }\r\n   \r\n    return ownedTokens;\r\n  }\r\n}\r\n",
  "sourcePath": "C:\\Users\\d\\nft\\src\\contracts\\Color.sol",
  "compiler": {
    "name": "solc",
    "version": "0.8.9+commit.e5eed63a.Emscripten.clang"
  },
  "schemaVersion": "3.4.3",
  "updatedAt": "2021-11-06T11:21:43.486Z",
  "networkType": "ethereum",
  "devdoc": {
    "kind": "dev",
    "methods": {
      "approve(address,uint256)": {
        "details": "See {IERC721-approve}."
      },
      "balanceOf(address)": {
        "details": "See {IERC721-balanceOf}."
      },
      "getApproved(uint256)": {
        "details": "See {IERC721-getApproved}."
      },
      "isApprovedForAll(address,address)": {
        "details": "See {IERC721-isApprovedForAll}."
      },
      "name()": {
        "details": "See {IERC721Metadata-name}."
      },
      "ownerOf(uint256)": {
        "details": "See {IERC721-ownerOf}."
      },
      "safeTransferFrom(address,address,uint256)": {
        "details": "See {IERC721-safeTransferFrom}."
      },
      "safeTransferFrom(address,address,uint256,bytes)": {
        "details": "See {IERC721-safeTransferFrom}."
      },
      "setApprovalForAll(address,bool)": {
        "details": "See {IERC721-setApprovalForAll}."
      },
      "symbol()": {
        "details": "See {IERC721Metadata-symbol}."
      },
      "tokenByIndex(uint256)": {
        "details": "See {IERC721Enumerable-tokenByIndex}."
      },
      "tokenOfOwnerByIndex(address,uint256)": {
        "details": "See {IERC721Enumerable-tokenOfOwnerByIndex}."
      },
      "tokenURI(uint256)": {
        "details": "See {IERC721Metadata-tokenURI}."
      },
      "totalSupply()": {
        "details": "See {IERC721Enumerable-totalSupply}."
      },
      "transferFrom(address,address,uint256)": {
        "details": "See {IERC721-transferFrom}."
      }
    },
    "version": 1
  },
  "userdoc": {
    "kind": "user",
    "methods": {},
    "version": 1
  }
}