{
  "contractName": "Color",
  "abi": [
    {
      "inputs": [],
      "stateMutability": "nonpayable",
      "type": "constructor"
    },
    {
      "anonymous": false,
      "inputs": [
        {
          "indexed": true,
          "internalType": "address",
          "name": "owner",
          "type": "address"
        },
        {
          "indexed": true,
          "internalType": "address",
          "name": "approved",
          "type": "address"
        },
        {
          "indexed": true,
          "internalType": "uint256",
          "name": "tokenId",
          "type": "uint256"
        }
      ],
      "name": "Approval",
      "type": "event"
    },
    {
      "anonymous": false,
      "inputs": [
        {
          "indexed": true,
          "internalType": "address",
          "name": "owner",
          "type": "address"
        },
        {
          "indexed": true,
          "internalType": "address",
          "name": "operator",
          "type": "address"
        },
        {
          "indexed": false,
          "internalType": "bool",
          "name": "approved",
          "type": "bool"
        }
      ],
      "name": "ApprovalForAll",
      "type": "event"
    },
    {
      "anonymous": false,
      "inputs": [
        {
          "indexed": true,
          "internalType": "address",
          "name": "from",
          "type": "address"
        },
        {
          "indexed": true,
          "internalType": "address",
          "name": "to",
          "type": "address"
        },
        {
          "indexed": true,
          "internalType": "uint256",
          "name": "tokenId",
          "type": "uint256"
        }
      ],
      "name": "Transfer",
      "type": "event"
    },
    {
      "inputs": [
        {
          "internalType": "address",
          "name": "to",
          "type": "address"
        },
        {
          "internalType": "uint256",
          "name": "tokenId",
          "type": "uint256"
        }
      ],
      "name": "approve",
      "outputs": [],
      "stateMutability": "nonpayable",
      "type": "function"
    },
    {
      "inputs": [
        {
          "internalType": "address",
          "name": "owner",
          "type": "address"
        }
      ],
      "name": "balanceOf",
      "outputs": [
        {
          "internalType": "uint256",
          "name": "",
          "type": "uint256"
        }
      ],
      "stateMutability": "view",
      "type": "function",
      "constant": true
    },
    {
      "inputs": [
        {
          "internalType": "uint256",
          "name": "",
          "type": "uint256"
        }
      ],
      "name": "colors",
      "outputs": [
        {
          "internalType": "string",
          "name": "",
          "type": "string"
        }
      ],
      "stateMutability": "view",
      "type": "function",
      "constant": true
    },
    {
      "inputs": [
        {
          "internalType": "uint256",
          "name": "tokenId",
          "type": "uint256"
        }
      ],
      "name": "getApproved",
      "outputs": [
        {
          "internalType": "address",
          "name": "",
          "type": "address"
        }
      ],
      "stateMutability": "view",
      "type": "function",
      "constant": true
    },
    {
      "inputs": [
        {
          "internalType": "address",
          "name": "owner",
          "type": "address"
        },
        {
          "internalType": "address",
          "name": "operator",
          "type": "address"
        }
      ],
      "name": "isApprovedForAll",
      "outputs": [
        {
          "internalType": "bool",
          "name": "",
          "type": "bool"
        }
      ],
      "stateMutability": "view",
      "type": "function",
      "constant": true
    },
    {
      "inputs": [],
      "name": "name",
      "outputs": [
        {
          "internalType": "string",
          "name": "",
          "type": "string"
        }
      ],
      "stateMutability": "view",
      "type": "function",
      "constant": true
    },
    {
      "inputs": [
        {
          "internalType": "uint256",
          "name": "tokenId",
          "type": "uint256"
        }
      ],
      "name": "ownerOf",
      "outputs": [
        {
          "internalType": "address",
          "name": "",
          "type": "address"
        }
      ],
      "stateMutability": "view",
      "type": "function",
      "constant": true
    },
    {
      "inputs": [
        {
          "internalType": "address",
          "name": "from",
          "type": "address"
        },
        {
          "internalType": "address",
          "name": "to",
          "type": "address"
        },
        {
          "internalType": "uint256",
          "name": "tokenId",
          "type": "uint256"
        }
      ],
      "name": "safeTransferFrom",
      "outputs": [],
      "stateMutability": "nonpayable",
      "type": "function"
    },
    {
      "inputs": [
        {
          "internalType": "address",
          "name": "from",
          "type": "address"
        },
        {
          "internalType": "address",
          "name": "to",
          "type": "address"
        },
        {
          "internalType": "uint256",
          "name": "tokenId",
          "type": "uint256"
        },
        {
          "internalType": "bytes",
          "name": "_data",
          "type": "bytes"
        }
      ],
      "name": "safeTransferFrom",
      "outputs": [],
      "stateMutability": "nonpayable",
      "type": "function"
    },
    {
      "inputs": [
        {
          "internalType": "address",
          "name": "operator",
          "type": "address"
        },
        {
          "internalType": "bool",
          "name": "approved",
          "type": "bool"
        }
      ],
      "name": "setApprovalForAll",
      "outputs": [],
      "stateMutability": "nonpayable",
      "type": "function"
    },
    {
      "inputs": [],
      "name": "symbol",
      "outputs": [
        {
          "internalType": "string",
          "name": "",
          "type": "string"
        }
      ],
      "stateMutability": "view",
      "type": "function",
      "constant": true
    },
    {
      "inputs": [
        {
          "internalType": "uint256",
          "name": "index",
          "type": "uint256"
        }
      ],
      "name": "tokenByIndex",
      "outputs": [
        {
          "internalType": "uint256",
          "name": "",
          "type": "uint256"
        }
      ],
      "stateMutability": "view",
      "type": "function",
      "constant": true
    },
    {
      "inputs": [
        {
          "internalType": "address",
          "name": "owner",
          "type": "address"
        },
        {
          "internalType": "uint256",
          "name": "index",
          "type": "uint256"
        }
      ],
      "name": "tokenOfOwnerByIndex",
      "outputs": [
        {
          "internalType": "uint256",
          "name": "",
          "type": "uint256"
        }
      ],
      "stateMutability": "view",
      "type": "function",
      "constant": true
    },
    {
      "inputs": [
        {
          "internalType": "uint256",
          "name": "tokenId",
          "type": "uint256"
        }
      ],
      "name": "tokenURI",
      "outputs": [
        {
          "internalType": "string",
          "name": "",
          "type": "string"
        }
      ],
      "stateMutability": "view",
      "type": "function",
      "constant": true
    },
    {
      "inputs": [],
      "name": "totalSupply",
      "outputs": [
        {
          "internalType": "uint256",
          "name": "",
          "type": "uint256"
        }
      ],
      "stateMutability": "view",
      "type": "function",
      "constant": true
    },
    {
      "inputs": [
        {
          "internalType": "address",
          "name": "from",
          "type": "address"
        },
        {
          "internalType": "address",
          "name": "to",
          "type": "address"
        },
        {
          "internalType": "uint256",
          "name": "tokenId",
          "type": "uint256"
        }
      ],
      "name": "transferFrom",
      "outputs": [],
      "stateMutability": "nonpayable",
      "type": "function"
    },
    {
      "inputs": [
        {
          "internalType": "bytes4",
          "name": "interfaceId",
          "type": "bytes4"
        }
      ],
      "name": "supportsInterface",
      "outputs": [
        {
          "internalType": "bool",
          "name": "",
          "type": "bool"
        }
      ],
      "stateMutability": "view",
      "type": "function",
      "constant": true
    },
    {
      "inputs": [
        {
          "internalType": "string",
          "name": "_color",
          "type": "string"
        }
      ],
      "name": "mint",
      "outputs": [],
      "stateMutability": "nonpayable",
      "type": "function"
    },
    {
      "inputs": [
        {
          "internalType": "uint256",
          "name": "tokenID",
          "type": "uint256"
        }
      ],
      "name": "burn",
      "outputs": [],
      "stateMutability": "nonpayable",
      "type": "function"
    },
    {
      "inputs": [
        {
          "internalType": "address",
          "name": "from",
          "type": "address"
        }
      ],
      "name": "findOwnTokens",
      "outputs": [
        {
          "internalType": "uint256[]",
          "name": "",
          "type": "uint256[]"
        }
      ],
      "stateMutability": "nonpayable",
      "type": "function"
    }
  ],
  "bytecode": "0x60806040523480156200001157600080fd5b506040518060400160405280600581526020017f436f6c6f720000000000000000000000000000000000000000000000000000008152506040518060400160405280600681526020017f434f4c4f52530000000000000000000000000000000000000000000000000000815250816000908051906020019062000096929190620000b8565b508060019080519060200190620000af929190620000b8565b505050620001cd565b828054620000c69062000197565b90600052602060002090601f016020900481019282620000ea576000855562000136565b82601f106200010557805160ff191683800117855562000136565b8280016001018555821562000136579182015b828111156200013557825182559160200191906001019062000118565b5b50905062000145919062000149565b5090565b5b80821115620001645760008160009055506001016200014a565b5090565b7f4e487b7100000000000000000000000000000000000000000000000000000000600052602260045260246000fd5b60006002820490506001821680620001b057607f821691505b60208210811415620001c757620001c662000168565b5b50919050565b61396680620001dd6000396000f3fe608060405234801561001057600080fd5b506004361061012c5760003560e01c80634f6ccce7116100ad578063b88d4fde11610071578063b88d4fde14610367578063bd11f69d14610383578063c87b56dd146103b3578063d85d3d27146103e3578063e985e9c5146103ff5761012c565b80634f6ccce71461029d5780636352211e146102cd57806370a08231146102fd57806395d89b411461032d578063a22cb4651461034b5761012c565b806323b872dd116100f457806323b872dd146101e957806326bd8aab146102055780632f745c591461023557806342842e0e1461026557806342966c68146102815761012c565b806301ffc9a71461013157806306fdde0314610161578063081812fc1461017f578063095ea7b3146101af57806318160ddd146101cb575b600080fd5b61014b60048036038101906101469190612465565b61042f565b60405161015891906124ad565b60405180910390f35b610169610441565b6040516101769190612561565b60405180910390f35b610199600480360381019061019491906125b9565b6104d3565b6040516101a69190612627565b60405180910390f35b6101c960048036038101906101c4919061266e565b610558565b005b6101d3610670565b6040516101e091906126bd565b60405180910390f35b61020360048036038101906101fe91906126d8565b61067d565b005b61021f600480360381019061021a919061272b565b6106dd565b60405161022c9190612816565b60405180910390f35b61024f600480360381019061024a919061266e565b61080f565b60405161025c91906126bd565b60405180910390f35b61027f600480360381019061027a91906126d8565b6108b4565b005b61029b600480360381019061029691906125b9565b6108d4565b005b6102b760048036038101906102b291906125b9565b61095e565b6040516102c491906126bd565b60405180910390f35b6102e760048036038101906102e291906125b9565b6109cf565b6040516102f49190612627565b60405180910390f35b6103176004803603810190610312919061272b565b610a81565b60405161032491906126bd565b60405180910390f35b610335610b39565b6040516103429190612561565b60405180910390f35b61036560048036038101906103609190612864565b610bcb565b005b610381600480360381019061037c91906129d9565b610d4c565b005b61039d600480360381019061039891906125b9565b610dae565b6040516103aa9190612561565b60405180910390f35b6103cd60048036038101906103c891906125b9565b610e5a565b6040516103da9190612561565b60405180910390f35b6103fd60048036038101906103f89190612afd565b610f01565b005b61041960048036038101906104149190612b46565b610fd8565b60405161042691906124ad565b60405180910390f35b600061043a8261106c565b9050919050565b60606000805461045090612bb5565b80601f016020809104026020016040519081016040528092919081815260200182805461047c90612bb5565b80156104c95780601f1061049e576101008083540402835291602001916104c9565b820191906000526020600020905b8154815290600101906020018083116104ac57829003601f168201915b5050505050905090565b60006104de826110e6565b61051d576040517f08c379a000000000000000000000000000000000000000000000000000000000815260040161051490612c59565b60405180910390fd5b6004600083815260200190815260200160002060009054906101000a900473ffffffffffffffffffffffffffffffffffffffff169050919050565b6000610563826109cf565b90508073ffffffffffffffffffffffffffffffffffffffff168373ffffffffffffffffffffffffffffffffffffffff1614156105d4576040517f08c379a00000000000000000000000000000000000000000000000000000000081526004016105cb90612ceb565b60405180910390fd5b8073ffffffffffffffffffffffffffffffffffffffff166105f3611152565b73ffffffffffffffffffffffffffffffffffffffff16148061062257506106218161061c611152565b610fd8565b5b610661576040517f08c379a000000000000000000000000000000000000000000000000000000000815260040161065890612d7d565b60405180910390fd5b61066b838361115a565b505050565b6000600880549050905090565b61068e610688611152565b82611213565b6106cd576040517f08c379a00000000000000000000000000000000000000000000000000000000081526004016106c490612e0f565b60405180910390fd5b6106d88383836112f1565b505050565b606060006106ea83610a81565b905060008390506107306040518060400160405280600e81526020017f6d73672e73656e646572313a25730000000000000000000000000000000000008152508561154d565b61076f6040518060400160405280600881526020017f62616c616e63653a000000000000000000000000000000000000000000000000815250836115e9565b60008267ffffffffffffffff81111561078b5761078a6128ae565b5b6040519080825280602002602001820160405280156107b95781602001602082028036833780820191505090505b50905060005b83811015610803576107d1838261080f565b8282815181106107e4576107e3612e2f565b5b60200260200101818152505080806107fb90612e8d565b9150506107bf565b50809350505050919050565b600061081a83610a81565b821061085b576040517f08c379a000000000000000000000000000000000000000000000000000000000815260040161085290612f48565b60405180910390fd5b600660008473ffffffffffffffffffffffffffffffffffffffff1673ffffffffffffffffffffffffffffffffffffffff168152602001908152602001600020600083815260200190815260200160002054905092915050565b6108cf83838360405180602001604052806000815250610d4c565b505050565b6000600b600a83815481106108ec576108eb612e2f565b5b906000526020600020016040516109039190613007565b908152602001604051809103902060006101000a81548160ff021916908315150217905550600a818154811061093c5761093b612e2f565b5b9060005260206000200160006109529190612316565b61095b81611685565b50565b6000610968610670565b82106109a9576040517f08c379a00000000000000000000000000000000000000000000000000000000081526004016109a090613090565b60405180910390fd5b600882815481106109bd576109bc612e2f565b5b90600052602060002001549050919050565b6000806002600084815260200190815260200160002060009054906101000a900473ffffffffffffffffffffffffffffffffffffffff169050600073ffffffffffffffffffffffffffffffffffffffff168173ffffffffffffffffffffffffffffffffffffffff161415610a78576040517f08c379a0000000000000000000000000000000000000000000000000000000008152600401610a6f90613122565b60405180910390fd5b80915050919050565b60008073ffffffffffffffffffffffffffffffffffffffff168273ffffffffffffffffffffffffffffffffffffffff161415610af2576040517f08c379a0000000000000000000000000000000000000000000000000000000008152600401610ae9906131b4565b60405180910390fd5b600360008373ffffffffffffffffffffffffffffffffffffffff1673ffffffffffffffffffffffffffffffffffffffff168152602001908152602001600020549050919050565b606060018054610b4890612bb5565b80601f0160208091040260200160405190810160405280929190818152602001828054610b7490612bb5565b8015610bc15780601f10610b9657610100808354040283529160200191610bc1565b820191906000526020600020905b815481529060010190602001808311610ba457829003601f168201915b5050505050905090565b610bd3611152565b73ffffffffffffffffffffffffffffffffffffffff168273ffffffffffffffffffffffffffffffffffffffff161415610c41576040517f08c379a0000000000000000000000000000000000000000000000000000000008152600401610c3890613220565b60405180910390fd5b8060056000610c4e611152565b73ffffffffffffffffffffffffffffffffffffffff1673ffffffffffffffffffffffffffffffffffffffff16815260200190815260200160002060008473ffffffffffffffffffffffffffffffffffffffff1673ffffffffffffffffffffffffffffffffffffffff16815260200190815260200160002060006101000a81548160ff0219169083151502179055508173ffffffffffffffffffffffffffffffffffffffff16610cfb611152565b73ffffffffffffffffffffffffffffffffffffffff167f17307eab39ab6107e8899845ad3d59bd9653f200f220920489ca2b5937696c3183604051610d4091906124ad565b60405180910390a35050565b610d5d610d57611152565b83611213565b610d9c576040517f08c379a0000000000000000000000000000000000000000000000000000000008152600401610d9390612e0f565b60405180910390fd5b610da884848484611796565b50505050565b600a8181548110610dbe57600080fd5b906000526020600020016000915090508054610dd990612bb5565b80601f0160208091040260200160405190810160405280929190818152602001828054610e0590612bb5565b8015610e525780601f10610e2757610100808354040283529160200191610e52565b820191906000526020600020905b815481529060010190602001808311610e3557829003601f168201915b505050505081565b6060610e65826110e6565b610ea4576040517f08c379a0000000000000000000000000000000000000000000000000000000008152600401610e9b906132b2565b60405180910390fd5b6000610eae6117f2565b90506000815111610ece5760405180602001604052806000815250610ef9565b80610ed884611809565b604051602001610ee9929190613303565b6040516020818303038152906040525b915050919050565b600a81908060018154018082558091505060019003906000526020600020016000909190919091509080519060200190610f3c929190612356565b5060006001600a80549050610f519190613327565b9050610f5d338261196a565b6001600b83604051610f6f919061335b565b908152602001604051809103902060006101000a81548160ff021916908315150217905550610fd46040518060400160405280601581526020017f546f6b656e49443a2573202020436f6c6f723a257300000000000000000000008152508284611b38565b5050565b6000600560008473ffffffffffffffffffffffffffffffffffffffff1673ffffffffffffffffffffffffffffffffffffffff16815260200190815260200160002060008373ffffffffffffffffffffffffffffffffffffffff1673ffffffffffffffffffffffffffffffffffffffff16815260200190815260200160002060009054906101000a900460ff16905092915050565b60007f780e9d63000000000000000000000000000000000000000000000000000000007bffffffffffffffffffffffffffffffffffffffffffffffffffffffff1916827bffffffffffffffffffffffffffffffffffffffffffffffffffffffff191614806110df57506110de82611bd7565b5b9050919050565b60008073ffffffffffffffffffffffffffffffffffffffff166002600084815260200190815260200160002060009054906101000a900473ffffffffffffffffffffffffffffffffffffffff1673ffffffffffffffffffffffffffffffffffffffff1614159050919050565b600033905090565b816004600083815260200190815260200160002060006101000a81548173ffffffffffffffffffffffffffffffffffffffff021916908373ffffffffffffffffffffffffffffffffffffffff160217905550808273ffffffffffffffffffffffffffffffffffffffff166111cd836109cf565b73ffffffffffffffffffffffffffffffffffffffff167f8c5be1e5ebec7d5bd14f71427d1e84f3dd0314c0f7b2291e5b200ac8c7c3b92560405160405180910390a45050565b600061121e826110e6565b61125d576040517f08c379a0000000000000000000000000000000000000000000000000000000008152600401611254906133e4565b60405180910390fd5b6000611268836109cf565b90508073ffffffffffffffffffffffffffffffffffffffff168473ffffffffffffffffffffffffffffffffffffffff1614806112d757508373ffffffffffffffffffffffffffffffffffffffff166112bf846104d3565b73ffffffffffffffffffffffffffffffffffffffff16145b806112e857506112e78185610fd8565b5b91505092915050565b8273ffffffffffffffffffffffffffffffffffffffff16611311826109cf565b73ffffffffffffffffffffffffffffffffffffffff1614611367576040517f08c379a000000000000000000000000000000000000000000000000000000000815260040161135e90613476565b60405180910390fd5b600073ffffffffffffffffffffffffffffffffffffffff168273ffffffffffffffffffffffffffffffffffffffff1614156113d7576040517f08c379a00000000000000000000000000000000000000000000000000000000081526004016113ce90613508565b60405180910390fd5b6113e2838383611cb9565b6113ed60008261115a565b6001600360008573ffffffffffffffffffffffffffffffffffffffff1673ffffffffffffffffffffffffffffffffffffffff168152602001908152602001600020600082825461143d9190613327565b925050819055506001600360008473ffffffffffffffffffffffffffffffffffffffff1673ffffffffffffffffffffffffffffffffffffffff16815260200190815260200160002060008282546114949190613528565b92505081905550816002600083815260200190815260200160002060006101000a81548173ffffffffffffffffffffffffffffffffffffffff021916908373ffffffffffffffffffffffffffffffffffffffff160217905550808273ffffffffffffffffffffffffffffffffffffffff168473ffffffffffffffffffffffffffffffffffffffff167fddf252ad1be2c89b69c2b068fc378daa952ba7f163c4a11628f55a4df523b3ef60405160405180910390a4505050565b6115e5828260405160240161156392919061357e565b6040516020818303038152906040527f319af333000000000000000000000000000000000000000000000000000000007bffffffffffffffffffffffffffffffffffffffffffffffffffffffff19166020820180517bffffffffffffffffffffffffffffffffffffffffffffffffffffffff8381831617835250505050611cc9565b5050565b61168182826040516024016115ff9291906135ae565b6040516020818303038152906040527f9710a9d0000000000000000000000000000000000000000000000000000000007bffffffffffffffffffffffffffffffffffffffffffffffffffffffff19166020820180517bffffffffffffffffffffffffffffffffffffffffffffffffffffffff8381831617835250505050611cc9565b5050565b6000611690826109cf565b905061169e81600084611cb9565b6116a960008361115a565b6001600360008373ffffffffffffffffffffffffffffffffffffffff1673ffffffffffffffffffffffffffffffffffffffff16815260200190815260200160002060008282546116f99190613327565b925050819055506002600083815260200190815260200160002060006101000a81549073ffffffffffffffffffffffffffffffffffffffff021916905581600073ffffffffffffffffffffffffffffffffffffffff168273ffffffffffffffffffffffffffffffffffffffff167fddf252ad1be2c89b69c2b068fc378daa952ba7f163c4a11628f55a4df523b3ef60405160405180910390a45050565b6117a18484846112f1565b6117ad84848484611cf2565b6117ec576040517f08c379a00000000000000000000000000000000000000000000000000000000081526004016117e390613650565b60405180910390fd5b50505050565b606060405180602001604052806000815250905090565b60606000821415611851576040518060400160405280600181526020017f30000000000000000000000000000000000000000000000000000000000000008152509050611965565b600082905060005b6000821461188357808061186c90612e8d565b915050600a8261187c919061369f565b9150611859565b60008167ffffffffffffffff81111561189f5761189e6128ae565b5b6040519080825280601f01601f1916602001820160405280156118d15781602001600182028036833780820191505090505b5090505b6000851461195e576001826118ea9190613327565b9150600a856118f991906136d0565b60306119059190613528565b60f81b81838151811061191b5761191a612e2f565b5b60200101907effffffffffffffffffffffffffffffffffffffffffffffffffffffffffffff1916908160001a905350600a85611957919061369f565b94506118d5565b8093505050505b919050565b600073ffffffffffffffffffffffffffffffffffffffff168273ffffffffffffffffffffffffffffffffffffffff1614156119da576040517f08c379a00000000000000000000000000000000000000000000000000000000081526004016119d19061374d565b60405180910390fd5b6119e3816110e6565b15611a23576040517f08c379a0000000000000000000000000000000000000000000000000000000008152600401611a1a906137b9565b60405180910390fd5b611a2f60008383611cb9565b6001600360008473ffffffffffffffffffffffffffffffffffffffff1673ffffffffffffffffffffffffffffffffffffffff1681526020019081526020016000206000828254611a7f9190613528565b92505081905550816002600083815260200190815260200160002060006101000a81548173ffffffffffffffffffffffffffffffffffffffff021916908373ffffffffffffffffffffffffffffffffffffffff160217905550808273ffffffffffffffffffffffffffffffffffffffff16600073ffffffffffffffffffffffffffffffffffffffff167fddf252ad1be2c89b69c2b068fc378daa952ba7f163c4a11628f55a4df523b3ef60405160405180910390a45050565b611bd2838383604051602401611b50939291906137d9565b6040516020818303038152906040527fa3f5c739000000000000000000000000000000000000000000000000000000007bffffffffffffffffffffffffffffffffffffffffffffffffffffffff19166020820180517bffffffffffffffffffffffffffffffffffffffffffffffffffffffff8381831617835250505050611cc9565b505050565b60007f80ac58cd000000000000000000000000000000000000000000000000000000007bffffffffffffffffffffffffffffffffffffffffffffffffffffffff1916827bffffffffffffffffffffffffffffffffffffffffffffffffffffffff19161480611ca257507f5b5e139f000000000000000000000000000000000000000000000000000000007bffffffffffffffffffffffffffffffffffffffffffffffffffffffff1916827bffffffffffffffffffffffffffffffffffffffffffffffffffffffff1916145b80611cb25750611cb182611e7a565b5b9050919050565b611cc4838383611ee4565b505050565b60008151905060006a636f6e736f6c652e6c6f679050602083016000808483855afa5050505050565b6000611d138473ffffffffffffffffffffffffffffffffffffffff16611ff8565b15611e6d578373ffffffffffffffffffffffffffffffffffffffff1663150b7a02611d3c611152565b8786866040518563ffffffff1660e01b8152600401611d5e9493929190613873565b6020604051808303816000875af1925050508015611d9a57506040513d601f19601f82011682018060405250810190611d9791906138d4565b60015b611e1d573d8060008114611dca576040519150601f19603f3d011682016040523d82523d6000602084013e611dcf565b606091505b50600081511415611e15576040517f08c379a0000000000000000000000000000000000000000000000000000000008152600401611e0c90613650565b60405180910390fd5b805181602001fd5b63150b7a0260e01b7bffffffffffffffffffffffffffffffffffffffffffffffffffffffff1916817bffffffffffffffffffffffffffffffffffffffffffffffffffffffff191614915050611e72565b600190505b949350505050565b60007f01ffc9a7000000000000000000000000000000000000000000000000000000007bffffffffffffffffffffffffffffffffffffffffffffffffffffffff1916827bffffffffffffffffffffffffffffffffffffffffffffffffffffffff1916149050919050565b611eef83838361200b565b600073ffffffffffffffffffffffffffffffffffffffff168373ffffffffffffffffffffffffffffffffffffffff161415611f3257611f2d81612010565b611f71565b8173ffffffffffffffffffffffffffffffffffffffff168373ffffffffffffffffffffffffffffffffffffffff1614611f7057611f6f8382612059565b5b5b600073ffffffffffffffffffffffffffffffffffffffff168273ffffffffffffffffffffffffffffffffffffffff161415611fb457611faf816121c6565b611ff3565b8273ffffffffffffffffffffffffffffffffffffffff168273ffffffffffffffffffffffffffffffffffffffff1614611ff257611ff18282612297565b5b5b505050565b600080823b905060008111915050919050565b505050565b6008805490506009600083815260200190815260200160002081905550600881908060018154018082558091505060019003906000526020600020016000909190919091505550565b6000600161206684610a81565b6120709190613327565b9050600060076000848152602001908152602001600020549050818114612155576000600660008673ffffffffffffffffffffffffffffffffffffffff1673ffffffffffffffffffffffffffffffffffffffff168152602001908152602001600020600084815260200190815260200160002054905080600660008773ffffffffffffffffffffffffffffffffffffffff1673ffffffffffffffffffffffffffffffffffffffff168152602001908152602001600020600084815260200190815260200160002081905550816007600083815260200190815260200160002081905550505b6007600084815260200190815260200160002060009055600660008573ffffffffffffffffffffffffffffffffffffffff1673ffffffffffffffffffffffffffffffffffffffff16815260200190815260200160002060008381526020019081526020016000206000905550505050565b600060016008805490506121da9190613327565b905060006009600084815260200190815260200160002054905060006008838154811061220a57612209612e2f565b5b90600052602060002001549050806008838154811061222c5761222b612e2f565b5b90600052602060002001819055508160096000838152602001908152602001600020819055506009600085815260200190815260200160002060009055600880548061227b5761227a613901565b5b6001900381819060005260206000200160009055905550505050565b60006122a283610a81565b905081600660008573ffffffffffffffffffffffffffffffffffffffff1673ffffffffffffffffffffffffffffffffffffffff168152602001908152602001600020600083815260200190815260200160002081905550806007600084815260200190815260200160002081905550505050565b50805461232290612bb5565b6000825580601f106123345750612353565b601f01602090049060005260206000209081019061235291906123dc565b5b50565b82805461236290612bb5565b90600052602060002090601f01602090048101928261238457600085556123cb565b82601f1061239d57805160ff19168380011785556123cb565b828001600101855582156123cb579182015b828111156123ca5782518255916020019190600101906123af565b5b5090506123d891906123dc565b5090565b5b808211156123f55760008160009055506001016123dd565b5090565b6000604051905090565b600080fd5b600080fd5b60007fffffffff0000000000000000000000000000000000000000000000000000000082169050919050565b6124428161240d565b811461244d57600080fd5b50565b60008135905061245f81612439565b92915050565b60006020828403121561247b5761247a612403565b5b600061248984828501612450565b91505092915050565b60008115159050919050565b6124a781612492565b82525050565b60006020820190506124c2600083018461249e565b92915050565b600081519050919050565b600082825260208201905092915050565b60005b838110156125025780820151818401526020810190506124e7565b83811115612511576000848401525b50505050565b6000601f19601f8301169050919050565b6000612533826124c8565b61253d81856124d3565b935061254d8185602086016124e4565b61255681612517565b840191505092915050565b6000602082019050818103600083015261257b8184612528565b905092915050565b6000819050919050565b61259681612583565b81146125a157600080fd5b50565b6000813590506125b38161258d565b92915050565b6000602082840312156125cf576125ce612403565b5b60006125dd848285016125a4565b91505092915050565b600073ffffffffffffffffffffffffffffffffffffffff82169050919050565b6000612611826125e6565b9050919050565b61262181612606565b82525050565b600060208201905061263c6000830184612618565b92915050565b61264b81612606565b811461265657600080fd5b50565b60008135905061266881612642565b92915050565b6000806040838503121561268557612684612403565b5b600061269385828601612659565b92505060206126a4858286016125a4565b9150509250929050565b6126b781612583565b82525050565b60006020820190506126d260008301846126ae565b92915050565b6000806000606084860312156126f1576126f0612403565b5b60006126ff86828701612659565b935050602061271086828701612659565b9250506040612721868287016125a4565b9150509250925092565b60006020828403121561274157612740612403565b5b600061274f84828501612659565b91505092915050565b600081519050919050565b600082825260208201905092915050565b6000819050602082019050919050565b61278d81612583565b82525050565b600061279f8383612784565b60208301905092915050565b6000602082019050919050565b60006127c382612758565b6127cd8185612763565b93506127d883612774565b8060005b838110156128095781516127f08882612793565b97506127fb836127ab565b9250506001810190506127dc565b5085935050505092915050565b6000602082019050818103600083015261283081846127b8565b905092915050565b61284181612492565b811461284c57600080fd5b50565b60008135905061285e81612838565b92915050565b6000806040838503121561287b5761287a612403565b5b600061288985828601612659565b925050602061289a8582860161284f565b9150509250929050565b600080fd5b600080fd5b7f4e487b7100000000000000000000000000000000000000000000000000000000600052604160045260246000fd5b6128e682612517565b810181811067ffffffffffffffff82111715612905576129046128ae565b5b80604052505050565b60006129186123f9565b905061292482826128dd565b919050565b600067ffffffffffffffff821115612944576129436128ae565b5b61294d82612517565b9050602081019050919050565b82818337600083830152505050565b600061297c61297784612929565b61290e565b905082815260208101848484011115612998576129976128a9565b5b6129a384828561295a565b509392505050565b600082601f8301126129c0576129bf6128a4565b5b81356129d0848260208601612969565b91505092915050565b600080600080608085870312156129f3576129f2612403565b5b6000612a0187828801612659565b9450506020612a1287828801612659565b9350506040612a23878288016125a4565b925050606085013567ffffffffffffffff811115612a4457612a43612408565b5b612a50878288016129ab565b91505092959194509250565b600067ffffffffffffffff821115612a7757612a766128ae565b5b612a8082612517565b9050602081019050919050565b6000612aa0612a9b84612a5c565b61290e565b905082815260208101848484011115612abc57612abb6128a9565b5b612ac784828561295a565b509392505050565b600082601f830112612ae457612ae36128a4565b5b8135612af4848260208601612a8d565b91505092915050565b600060208284031215612b1357612b12612403565b5b600082013567ffffffffffffffff811115612b3157612b30612408565b5b612b3d84828501612acf565b91505092915050565b60008060408385031215612b5d57612b5c612403565b5b6000612b6b85828601612659565b9250506020612b7c85828601612659565b9150509250929050565b7f4e487b7100000000000000000000000000000000000000000000000000000000600052602260045260246000fd5b60006002820490506001821680612bcd57607f821691505b60208210811415612be157612be0612b86565b5b50919050565b7f4552433732313a20617070726f76656420717565727920666f72206e6f6e657860008201527f697374656e7420746f6b656e0000000000000000000000000000000000000000602082015250565b6000612c43602c836124d3565b9150612c4e82612be7565b604082019050919050565b60006020820190508181036000830152612c7281612c36565b9050919050565b7f4552433732313a20617070726f76616c20746f2063757272656e74206f776e6560008201527f7200000000000000000000000000000000000000000000000000000000000000602082015250565b6000612cd56021836124d3565b9150612ce082612c79565b604082019050919050565b60006020820190508181036000830152612d0481612cc8565b9050919050565b7f4552433732313a20617070726f76652063616c6c6572206973206e6f74206f7760008201527f6e6572206e6f7220617070726f76656420666f7220616c6c0000000000000000602082015250565b6000612d676038836124d3565b9150612d7282612d0b565b604082019050919050565b60006020820190508181036000830152612d9681612d5a565b9050919050565b7f4552433732313a207472616e736665722063616c6c6572206973206e6f74206f60008201527f776e6572206e6f7220617070726f766564000000000000000000000000000000602082015250565b6000612df96031836124d3565b9150612e0482612d9d565b604082019050919050565b60006020820190508181036000830152612e2881612dec565b9050919050565b7f4e487b7100000000000000000000000000000000000000000000000000000000600052603260045260246000fd5b7f4e487b7100000000000000000000000000000000000000000000000000000000600052601160045260246000fd5b6000612e9882612583565b91507fffffffffffffffffffffffffffffffffffffffffffffffffffffffffffffffff821415612ecb57612eca612e5e565b5b600182019050919050565b7f455243373231456e756d657261626c653a206f776e657220696e646578206f7560008201527f74206f6620626f756e6473000000000000000000000000000000000000000000602082015250565b6000612f32602b836124d3565b9150612f3d82612ed6565b604082019050919050565b60006020820190508181036000830152612f6181612f25565b9050919050565b600081905092915050565b60008190508160005260206000209050919050565b60008154612f9581612bb5565b612f9f8186612f68565b94506001821660008114612fba5760018114612fcb57612ffe565b60ff19831686528186019350612ffe565b612fd485612f73565b60005b83811015612ff657815481890152600182019150602081019050612fd7565b838801955050505b50505092915050565b60006130138284612f88565b915081905092915050565b7f455243373231456e756d657261626c653a20676c6f62616c20696e646578206f60008201527f7574206f6620626f756e64730000000000000000000000000000000000000000602082015250565b600061307a602c836124d3565b91506130858261301e565b604082019050919050565b600060208201905081810360008301526130a98161306d565b9050919050565b7f4552433732313a206f776e657220717565727920666f72206e6f6e657869737460008201527f656e7420746f6b656e0000000000000000000000000000000000000000000000602082015250565b600061310c6029836124d3565b9150613117826130b0565b604082019050919050565b6000602082019050818103600083015261313b816130ff565b9050919050565b7f4552433732313a2062616c616e636520717565727920666f7220746865207a6560008201527f726f206164647265737300000000000000000000000000000000000000000000602082015250565b600061319e602a836124d3565b91506131a982613142565b604082019050919050565b600060208201905081810360008301526131cd81613191565b9050919050565b7f4552433732313a20617070726f766520746f2063616c6c657200000000000000600082015250565b600061320a6019836124d3565b9150613215826131d4565b602082019050919050565b60006020820190508181036000830152613239816131fd565b9050919050565b7f4552433732314d657461646174613a2055524920717565727920666f72206e6f60008201527f6e6578697374656e7420746f6b656e0000000000000000000000000000000000602082015250565b600061329c602f836124d3565b91506132a782613240565b604082019050919050565b600060208201905081810360008301526132cb8161328f565b9050919050565b60006132dd826124c8565b6132e78185612f68565b93506132f78185602086016124e4565b80840191505092915050565b600061330f82856132d2565b915061331b82846132d2565b91508190509392505050565b600061333282612583565b915061333d83612583565b9250828210156133505761334f612e5e565b5b828203905092915050565b600061336782846132d2565b915081905092915050565b7f4552433732313a206f70657261746f7220717565727920666f72206e6f6e657860008201527f697374656e7420746f6b656e0000000000000000000000000000000000000000602082015250565b60006133ce602c836124d3565b91506133d982613372565b604082019050919050565b600060208201905081810360008301526133fd816133c1565b9050919050565b7f4552433732313a207472616e73666572206f6620746f6b656e2074686174206960008201527f73206e6f74206f776e0000000000000000000000000000000000000000000000602082015250565b60006134606029836124d3565b915061346b82613404565b604082019050919050565b6000602082019050818103600083015261348f81613453565b9050919050565b7f4552433732313a207472616e7366657220746f20746865207a65726f2061646460008201527f7265737300000000000000000000000000000000000000000000000000000000602082015250565b60006134f26024836124d3565b91506134fd82613496565b604082019050919050565b60006020820190508181036000830152613521816134e5565b9050919050565b600061353382612583565b915061353e83612583565b9250827fffffffffffffffffffffffffffffffffffffffffffffffffffffffffffffffff0382111561357357613572612e5e565b5b828201905092915050565b600060408201905081810360008301526135988185612528565b90506135a76020830184612618565b9392505050565b600060408201905081810360008301526135c88185612528565b90506135d760208301846126ae565b9392505050565b7f4552433732313a207472616e7366657220746f206e6f6e20455243373231526560008201527f63656976657220696d706c656d656e7465720000000000000000000000000000602082015250565b600061363a6032836124d3565b9150613645826135de565b604082019050919050565b600060208201905081810360008301526136698161362d565b9050919050565b7f4e487b7100000000000000000000000000000000000000000000000000000000600052601260045260246000fd5b60006136aa82612583565b91506136b583612583565b9250826136c5576136c4613670565b5b828204905092915050565b60006136db82612583565b91506136e683612583565b9250826136f6576136f5613670565b5b828206905092915050565b7f4552433732313a206d696e7420746f20746865207a65726f2061646472657373600082015250565b60006137376020836124d3565b915061374282613701565b602082019050919050565b600060208201905081810360008301526137668161372a565b9050919050565b7f4552433732313a20746f6b656e20616c7265616479206d696e74656400000000600082015250565b60006137a3601c836124d3565b91506137ae8261376d565b602082019050919050565b600060208201905081810360008301526137d281613796565b9050919050565b600060608201905081810360008301526137f38186612528565b905061380260208301856126ae565b81810360408301526138148184612528565b9050949350505050565b600081519050919050565b600082825260208201905092915050565b60006138458261381e565b61384f8185613829565b935061385f8185602086016124e4565b61386881612517565b840191505092915050565b60006080820190506138886000830187612618565b6138956020830186612618565b6138a260408301856126ae565b81810360608301526138b4818461383a565b905095945050505050565b6000815190506138ce81612439565b92915050565b6000602082840312156138ea576138e9612403565b5b60006138f8848285016138bf565b91505092915050565b7f4e487b7100000000000000000000000000000000000000000000000000000000600052603160045260246000fdfea2646970667358221220c3764e29a723e718e40564b3e422d90aa274e0505e905a38b566edbbd1c3c2c064736f6c634300080a0033",
  "immutableReferences": {},
  "source": "// SPDX-License-Identifier: MIT    \r\npragma solidity ^0.8.0;\r\n    \r\nimport \"@openzeppelin/contracts/token/ERC721/ERC721.sol\";\r\nimport \"@openzeppelin/contracts/token/ERC721/extensions/ERC721Enumerable.sol\";\r\nimport \"hardhat/console.sol\";\r\n\r\ncontract Color is ERC721, ERC721Enumerable{\r\n  \r\n  string[] public colors;\r\n  mapping(string => bool) _colorExists;\r\n\r\n  constructor ()   ERC721(\"Color\", \"COLORS\") {}\r\n\r\n  function _beforeTokenTransfer(address from, address to, uint256 tokenId) internal override(ERC721, ERC721Enumerable) {\r\n    super._beforeTokenTransfer(from, to, tokenId);\r\n  }\r\n\r\n  function supportsInterface(bytes4 interfaceId) public view override(ERC721, ERC721Enumerable) returns (bool) {\r\n    return super.supportsInterface(interfaceId);\r\n  }\r\n\r\n  function mint(string memory _color) public{\r\n    colors.push(_color);\r\n    uint _id = colors.length-1;\r\n    _mint(msg.sender, _id);\r\n    _colorExists[_color] = true;\r\n    console.log(\"TokenID:%s   Color:%s\",_id,_color);\r\n  }\r\n  \r\n  function burn(uint256 tokenID) public{\r\n    \r\n    _colorExists[colors[tokenID]] = false;\r\n    delete colors[tokenID];    \r\n    _burn(tokenID);\r\n  }\r\n\r\n  function findOwnTokens(address from) public returns(uint256[] memory) {\r\n      \r\n    uint balance = balanceOf(from);\r\n    address account = from;\r\n    console.log(\"msg.sender1:%s\",from);\r\n    console.log(\"balance:\",balance);\r\n    uint256[] memory ownedTokens = new uint256[](balance);\r\n  \r\n    \r\n    for(uint i=0; i<balance; i++){\r\n    ownedTokens[i] = tokenOfOwnerByIndex(account,i);\r\n        }\r\n   \r\n    return ownedTokens;\r\n  }\r\n}\r\n",
  "sourcePath": "C:\\Users\\d\\nft\\src\\contracts\\Color.sol",
  "compiler": {
    "name": "solc",
    "version": "0.8.10+commit.fc410830.Emscripten.clang"
  },
  "schemaVersion": "3.4.3",
  "updatedAt": "2021-11-14T06:32:21.490Z",
  "networkType": "ethereum",
  "devdoc": {
    "kind": "dev",
    "methods": {
      "approve(address,uint256)": {
        "details": "See {IERC721-approve}."
      },
      "balanceOf(address)": {
        "details": "See {IERC721-balanceOf}."
      },
      "getApproved(uint256)": {
        "details": "See {IERC721-getApproved}."
      },
      "isApprovedForAll(address,address)": {
        "details": "See {IERC721-isApprovedForAll}."
      },
      "name()": {
        "details": "See {IERC721Metadata-name}."
      },
      "ownerOf(uint256)": {
        "details": "See {IERC721-ownerOf}."
      },
      "safeTransferFrom(address,address,uint256)": {
        "details": "See {IERC721-safeTransferFrom}."
      },
      "safeTransferFrom(address,address,uint256,bytes)": {
        "details": "See {IERC721-safeTransferFrom}."
      },
      "setApprovalForAll(address,bool)": {
        "details": "See {IERC721-setApprovalForAll}."
      },
      "symbol()": {
        "details": "See {IERC721Metadata-symbol}."
      },
      "tokenByIndex(uint256)": {
        "details": "See {IERC721Enumerable-tokenByIndex}."
      },
      "tokenOfOwnerByIndex(address,uint256)": {
        "details": "See {IERC721Enumerable-tokenOfOwnerByIndex}."
      },
      "tokenURI(uint256)": {
        "details": "See {IERC721Metadata-tokenURI}."
      },
      "totalSupply()": {
        "details": "See {IERC721Enumerable-totalSupply}."
      },
      "transferFrom(address,address,uint256)": {
        "details": "See {IERC721-transferFrom}."
      }
    },
    "version": 1
  },
  "userdoc": {
    "kind": "user",
    "methods": {},
    "version": 1
  }
}